:020000040800F2
:10000000B0070020513B0008C5030008C7030008E3
:10001000CB030008CF030008D30300080000000052
:10002000000000000000000000000000D7030008EE
:10003000D903000800000000DB030008DD0300080E
:100040006B3B00086B3B00086B3B00086B3B0008F8
:100050006B3B00086B3B00086B3B00086B3B0008E8
:100060006B3B00086B3B00086B3B00086B3B0008D8
:100070006B3B00086B3B00086B3B00086B3B0008C8
:100080006B3B00086B3B00086B3B00086B3B0008B8
:100090006B3B00086B3B00086B3B00086B3B0008A8
:1000A0006B3B0008F93500086B3B00086B3B000810
:1000B0006B3B00086B3B00086B3B00086B3B000888
:1000C0006B3B00086B3B00086B3B00086B3B000878
:1000D0006B3B0008793A0008610600086B3B00089A
:1000E0006B3B00086B3B00086B3B00086B3B000858
:1000F0006B3B00086B3B00086B3B00086B3B000848
:100100006B3B00086B3B00086B3B00086B3B000837
:100110006B3B00086B3B0008710200086B3B00085A
:100120006B3B00086B3B00086B3B00086B3B000817
:1001300000F002F800F03FF80AA090E8000C8244BA
:100140008344AAF10107DA4501D100F034F8AFF297
:10015000090EBAE80F0013F0010F18BFFB1A43F0A5
:10016000010318475858000078580000103A24BF7F
:1001700078C878C1FAD8520724BF30C830C144BF0C
:1001800004680C607047000000230024002500264E
:10019000103A28BF78C1FBD8520728BF30C148BFEA
:1001A0000B607047642905F08F82002070471FB5EF
:1001B0001FBD10B510BD05F0ABFB1146FFF7F7FFF3
:1001C00000F008F805F0C9FB03B4FFF7F2FF03BC29
:1001D00003F0F0FB4FF4A06003F0DAFC03F080FBC7
:1001E0004FF4E13003F0F9FB00F000FD002141F68F
:1001F0001F4000F0E6FB40F2CF2140F2CF7000F04C
:100200009BFA40F2CF2140F2CF7000F01CFB00F0CF
:100210009BFE472140F2E73000F0A6FB03F064F9B3
:10022000472140F2E73003F07AF94FF4964003F0AB
:10023000D4FB4FF4964000F0C3F900204E490870FB
:1002400040F29E704D49088040F22670090788866A
:1002500040F26C70088740F2267088874FF4EB609C
:100260004749088003E002F064FB00F090FEFAE7E3
:1002700000B58BB00121434803F0EBFD4249087003
:100280000221404803F0E5FD3F49487004213D4804
:1002900003F0DFFD3C49887008213A4803F0D9FD9E
:1002A0003949C8701021374803F0D3FD3649087129
:1002B0002021344803F0CDFD3349487140213148B5
:1002C00003F0C7FD3049887180212E4803F0C1FD3D
:1002D0002D49C8714FF480712A4803F0BAFD2A49AC
:1002E00008724FF40071274803F0B3FD26494872A5
:1002F0004FF48061234803F0ACFD234988724FF42A
:100300000061204803F0A5FD1F49C8724FF48051D9
:100310001C4803F09EFD1C4908730846007BC97AFF
:10032000194A927A184B5B7ACDE90632CDE908106A
:100330001548007A1449CA798979134B5B79CDE95C
:100340000231CDE90420104800790F49C978CDE980
:1003500000100D488378427801780CA005F0A8F9C8
:100360000548017814A005F0A3F90121144804F010
:1003700007FF0BB000BD0000BC00002034080040A7
:1003800040000040001C01402201002025642C2573
:10039000642C25642C25642C25642C25642C256470
:1003A0002C25642C25642C25642C25642C25642C98
:1003B00025640D0A0000000020256420200D0A009D
:1003C00000100040704700BFFEE700BFFEE700BF1F
:1003D000FEE700BFFEE770477047704770470000B8
:1003E0000CB50020019000906C48006840F480300B
:1003F0006A49086000BF6948006800F40030009056
:100400000198401C0190009818B90198B0F5A06FB0
:10041000F1D16248006800F4003010B10120009072
:1004200001E0002000900098012843D15C4800685A
:1004300040F010005A4908600846006820F00300A8
:1004400008600846006840F00200086053484068B1
:10045000524948600846406848600846406840F491
:10046000806048600846406820F47C104860084678
:10047000406840F4E81048600846006840F080702A
:10048000086000BF4548006800F000700028F9D0FF
:100490004248406820F003004049486008464068F0
:1004A00040F00200486000BF3C48406800F00C008B
:1004B0000828F9D10CBD10B5FFF792FF10BD10B59B
:1004C0003648006840F0010034490860084640683A
:1004D00034490840314948600846006832490840BC
:1004E0002E4908600846006820F48020086008460D
:1004F000406820F4FE0048604FF41F008860FFF75A
:10050000DAFF4FF000602949086010BD10B50021E6
:1005100000200022214B5B6803F00C0121B104296B
:1005200006D0082928D107E0214B224C236027E080
:100530001F4B204C236023E0184B5B6803F47010C2
:10054000164B5B6803F48032022303EB904022B920
:10055000194B4343174C23600DE0104B5B6803F4C9
:10056000003323B1144B4343124C236003E0104B80
:100570004343104C236003E00D4B0E4C236000BF3F
:1005800000BF064B5B68C3F303130C4CE15C094BE3
:100590001B68CB40074C236010BD000000100240D8
:1005A000002002400000FFF8FFFFF6FE08ED00E02B
:1005B00000127A000000002000093D000400002025
:1005C00010B586B004460121042003F06BFE012122
:1005D000480403F074FE534804F0D6FD0420ADF83F
:1005E000140003208DF8160018208DF8170005A9B7
:1005F0004D4803F09BFB0820ADF8140004208DF853
:10060000170005A9484803F091FB01940020ADF8BC
:100610000800ADF80A00ADF80C00ADF810000C2091
:10062000ADF80E0001A93F4804F0F1FD26208DF839
:10063000000003208DF801008DF8020001208DF8E4
:100640000300684603F0A9FA012240F2255135481B
:1006500004F075FE0121334804F065FE06B010BDBC
:1006600010B540F225512F4804F04EFF002833D03A
:100670002C4804F0C9FEC4B2AA2C0CD12B48008827
:1006800048B92A48008840F4804028490880084634
:10069000007827490C542548008880B12348007809
:1006A00023490C542148017822480078C01C81421B
:1006B00005D11E48008840F400401C4908801B48B2
:1006C0000078022803D11A4880781A490870174820
:1006D0000088401C1549088010BD70B505460E46BF
:1006E00000240BE0295D0F4804F08AFE00BF402182
:1006F0000C4804F0F3FE0128F9D1641CB442F1DB8C
:1007000070BD02460020094B1B780B7000BF04E04F
:10071000074B1B5C1354431CD8B20B788342F7DCA5
:10072000704700000044004000080140160000200F
:10073000040100201400002030B589B005460C46A5
:100740000121084603F0BBFD01210D2003F0AAFDA5
:100750000121FE4803F0BBFB4FF44060ADF82000E0
:1007600018208DF8230003208DF8220008A9F848EE
:1007700003F0DCFA0320ADF8200018208DF82300E8
:1007800003208DF8220008A9F24803F0CFFAADF853
:100790001850ADF814400020ADF81A00ADF816005E
:1007A00005A94FF0804003F0B5FE7020ADF80400BD
:1007B0000120ADF806000020ADF80C0001A94FF0B3
:1007C000804003F026FF0821E34804F038FB702046
:1007D000ADF804000120ADF806000020ADF80C00D3
:1007E00001A94FF0804003F0D2FE0821C80604F0B2
:1007F0001DFB7020ADF804000120ADF806000020BC
:10080000ADF80C0001A94FF0804003F04FFF082124
:10081000C80604F021FB7020ADF804000120ADF8FB
:1008200006000020ADF80C0001A94FF0804003F055
:1008300088FF0821C80604F018FB0121880704F08E
:10084000C5F909B030BD30B589B005460C46012167
:10085000042003F034FD0121212003F023FD0121B8
:10086000080303F034FB4FF48050ADF8200018204B
:100870008DF8230003208DF8220008A9B74803F063
:1008800055FAADF81850ADF814400020ADF81A0034
:10089000ADF8160005A9B24803F03CFE7020ADF893
:1008A00004000120ADF806000020ADF80C0001A9FD
:1008B000AB4803F06CFE0821A94804F0B7FA702099
:1008C000ADF804000120ADF806000020ADF80C00E2
:1008D00001A9A34803F0EAFE0821A14804F0BCFAEC
:1008E0007020ADF804000120ADF806000020ADF83E
:1008F0000C0001A99A4803F024FF0821984804F04D
:10090000B4FA0121964804F061F909B030BD7FB511
:1009100005460C460121082003F0D1FCADF8085033
:10092000ADF804400020ADF80A00ADF8060001A9BA
:100930008C4803F0EFFD012211468A4804F061F96A
:1009400032208DF8000000208DF8010003208DF882
:10095000020001208DF80300684603F01EF9012112
:10096000804804F033F97FBD7FB505460C46012170
:10097000102003F0A4FCADF80850ADF804400020AE
:10098000ADF80A00ADF8060001A9774803F0C2FDF2
:1009900001221146744804F034F936208DF8000025
:1009A00000208DF8010003208DF8020001208DF851
:1009B0000300684603F0F1F801216B4804F006F9E2
:1009C0007FBD30B589B005460C460121022003F0F9
:1009D00076FC0121112003F065FC0121634803F03E
:1009E00076FA4FF47070ADF8200018208DF82300CF
:1009F00003208DF8220008A95D4803F097F9ADF8AF
:100A00001850ADF814400020ADF81A00ADF81600EB
:100A100005A9514803F07EFD7020ADF804000120C7
:100A2000ADF806000020ADF80C0001A94A4803F01B
:100A3000F0FD0821484804F002FA7020ADF80400E7
:100A40000120ADF806000020ADF80C0001A94248D5
:100A500003F09DFD0821404804F0E8F97020ADF84E
:100A600004000120ADF806000020ADF80C0001A93B
:100A7000394803F01BFE0821374804F0EDF97020D7
:100A8000ADF804000120ADF806000020ADF80C0020
:100A900001A9314803F055FE08212F4804F0E5F97B
:100AA00001212D4804F092F809B030BD08B54FF48B
:100AB000A06003F06DF806208DF8000001208DF88D
:100AC000010000208DF8020001208DF80300684627
:100AD00003F063F807208DF8000001208DF8010075
:100AE0008DF802008DF80300684603F056F80820E0
:100AF0008DF8000001208DF8010002208DF8020021
:100B000001208DF80300684603F047F809208DF8AE
:100B1000000001208DF8010003208DF80200012063
:100B20008DF80300684603F038F81C208DF80000AB
:100B300000208DF8010002208DF8020001208DF8C0
:100B40000300684603F029F81D2013E00002180096
:100B5000000C014000080140000400400014014066
:100B600000080040000C004000100040000C1A007B
:100B7000001001408DF8000000208DF801000120D8
:100B80008DF802008DF80300684603F006F8362061
:100B90008DF8000000208DF8010002208DF8020081
:100BA00001208DF80300684602F0F7FF37208DF82A
:100BB000000001208DF8010000208DF802000120C6
:100BC0008DF80300684602F0E8FF08BD1CB50F2051
:100BD000009000208DF804000C208DF80500012005
:100BE0008DF80600684604F0E1FC1CBD08B5012143
:100BF000202003F057FB4FF46050ADF800001020A8
:100C00008DF8030003208DF802006946174803F0B1
:100C10008DF80121164803F05AF90121042003F050
:100C200041FB0121080203F03DFB0121084603F0CE
:100C300039FB42F2E000ADF8000010208DF803000F
:100C400003208DF8020069460A4803F06FF8B820C7
:100C5000ADF8000010208DF8030003208DF802008D
:100C60006946054803F062F808BD00000014014021
:100C700000023000000801400020014008B50121B9
:100C8000524803F024F90121402003F00BFB01211D
:100C9000080203F007FB0121084603F003FB4FF6AF
:100CA0001000ADF8000010208DF8030003208DF82F
:100CB00002006946464803F039F84FF4D070ADF8A9
:100CC000000010208DF8030003208DF80200694613
:100CD000404803F02BF80021042003F03DF90121E6
:100CE000042003F039F90221042003F035F903212F
:100CF000042003F031F908BD30B1012815D00228D5
:100D000024D0032848D134E039B90022324B1A608C
:100D10000122324BC3F89C2106E001222E4B1A60BF
:100D200000222E4BC3F89C214DE039B900222C4BF8
:100D30001A600122294BC3F88C2106E00122284BBE
:100D40001A600022254BC3F88C213CE041B90022F7
:100D5000234B1B1D1A600122204BC3F8902107E092
:100D600001221F4B1B1D1A6000221C4BC3F890214F
:100D700029E041B900221A4B1B1F1A600122174BB0
:100D8000C3F8942107E00122154B1B1F1A600022B3
:100D9000124BC3F8942116E001220F4B1A600F4B3F
:100DA000C3F89C210E4B1A600E4B1A600C4B1B1D96
:100DB0001A600C4B1B1D1A60094B1B1F1A60074B56
:100DC000C3F8942100BF00BF70470000000230004C
:100DD0000008014000200140B4812242000024426A
:100DE000980121428C01244230B5524D28802D1D9E
:100DF00029802D1D2A802D1D2B8030BD10B5044665
:100E0000082C71D2DFE804F08204152637485F71A0
:100E100001210020FFF770FF01210846FFF76CFF5A
:100E200000210220FFF768FF00210320FFF764FF85
:100E30007DE001210020FFF75FFF00210120FFF787
:100E40005BFF00210220FFF757FF01210320FFF77E
:100E500053FF6CE000210846FFF74EFF01210846D2
:100E6000FFF74AFF01210220FFF746FF0021032080
:100E7000FFF742FF5BE000210846FFF73DFF01213D
:100E80000846FFF739FF00210220FFF735FF012157
:100E90000320FFF731FF4AE0002027490860274977
:100EA000C1F89C0126490860264908602449091DAB
:100EB00008602449091D08602149091F08601F496D
:100EC000C1F8940133E001210020FFF715FF002154
:100ED0000120FFF711FF01210220FFF70DFF002184
:100EE0000320FFF709FF22E010E000210846FFF78A
:100EF00003FF00210120FFF7FFFE01210220FFF781
:100F0000FBFE01210320FFF7F7FE10E00021084659
:100F1000FFF7F2FE00210120FFF7EEFE0021022084
:100F2000FFF7EAFE00210320FFF7E6FE00BF00BF47
:100F300010BD704734040040B481224200002442B6
:100F4000980121428C01244208B50121942003F02C
:100F5000A9F94FF6FF70ADF8000028208DF80300C6
:100F600003208DF802006946014802F0DFFE08BD4B
:100F7000001C014070B50546012404E06D1C0120F1
:100F800002F0EBFC641CB4F5487FF7DB70BD10B5D4
:100F9000F84800780F2881F0BF84DFE810F03700B0
:100FA000B307A3070F001B00E10929001A00580628
:100FB000470BAE0CFB04E302910382010020EE49D3
:100FC0000880091D0880091D0880091D088001F09E
:100FD000AEBCFCE70620FFF711FF40F6B830E6494B
:100FE0000880091D0880091D0880091D0880EEE79A
:100FF0000420FFF703FF40F6B830DF490880091DE1
:101000000880091D0880091D0880E0E70120FFF71E
:10101000F5FEDA48007880B9D848407801280CD12C
:10102000D6488078012808D1D448C07828B9D44857
:101030000088D149091D08803EE0D048007878B981
:10104000CE48407860B9CD488078012808D1CB4897
:10105000C07828B9CB480088C749091D08802BE013
:10106000C648007880B9C548407868B9C3488078D8
:10107000012809D1C148C078012805D1C24800889B
:10108000BD49091D088017E0BC48007878B9BB4805
:10109000407860B9B948807848B9B848C078012824
:1010A00005D1BA480088B449091D088004E0B44855
:1010B0000088B149091D0880B048007878B9AF4868
:1010C000407801280BD1AD488078012807D1AB4882
:1010D000C07820B9AA480088A74908803AE0A74804
:1010E000007870B9A548407801280AD1A3488078D3
:1010F00038B9A248C07820B9A24800889E49088023
:1011000028E09E48007801280ED19C4840780128AC
:101110000AD19A48807838B99848C07820B99A4856
:1011200000889549088015E09448007801280DD181
:101130009248407850B99148807838B98F48C07843
:1011400020B9924800888C49088003E08C480088C8
:10115000894908808948007980B988484079012800
:101160000CD186488079012808D18448C07928B9F3
:101170008348008880490C3108803EE07F48007930
:1011800078B97E48407960B97C488079012808D1D7
:101190007A48C07928B97B48008877490C310880A3
:1011A0002BE07648007980B97448407968B9734873
:1011B0008079012809D17148C079012805D1724888
:1011C00000886D490C31088017E06C48007978B9C7
:1011D0006A48407960B96948807948B96748C079F8
:1011E000012805D16948008863490C31088004E072
:1011F0006348008860490C3108806048007980B9F4
:101200005E48407901280CD15C488079012808D1DA
:101210005A48C07928B95A48008857490831088087
:101220003EE05648007978B95448407901280BD1FE
:101230005248807940B95148C07928B9514800884E
:101240004D49083108802BE04C48007901280FD126
:101250004A48407901280BD14848807940B947482D
:10126000C07928B94848008843490831088017E008
:101270004248007901280ED14048407958B93F488A
:10128000807940B93D48C07928B9404800883A493A
:101290000831088004E03A4800883749083108805E
:1012A00095E60120FFF7AAFD3448007880B933485D
:1012B000407801280CD131488078012808D12F4886
:1012C000C07828B9324800882B49091D08803EE0C3
:1012D0002A48007878B92948407860B9274880784A
:1012E000012808D12548C07828B92A480088224911
:1012F000091D08802BE02148007880B91F484078FC
:1013000068B91E488078012809D11C48C078012896
:1013100005D1214800881849091D088017E01748A1
:10132000007878B91548407860B91448807848B991
:101330001248C078012805D1184800880E49091DB7
:10134000088004E0124800880B49091D08800B48FA
:10135000007828BB09484078012821D107488078C7
:1013600001281DD10548C078D0B909480088024934
:10137000088050E01C0000203404004022010020BE
:10138000340000203C0000204000002044000020E9
:101390007000002074000020780000207C000020F5
:1013A000FC48007870B9FB48407801280AD1F94818
:1013B000807838B9F748C07820B9F7480088F749ED
:1013C000088028E0F348007801280ED1F1484078E1
:1013D00001280AD1EF48807838B9EE48C07820B9A2
:1013E000EF480088ED49088015E0EA4800780128B8
:1013F0000DD1E848407850B9E648807838B9E548DA
:10140000C07820B9E7480088E449088003E0E6484E
:101410000088E2490880DF48007980B9DD484079DA
:1014200001280CD1DB488079012808D1D948C0793E
:1014300028B9DD480088D9490C3108803EE0D548FC
:10144000007978B9D348407960B9D24880790128C9
:1014500008D1D048C07928B9CF480088CF490C318D
:1014600008802BE0CB48007980B9CA48407968B938
:10147000C8488079012809D1C648C079012805D11A
:10148000C7480088C5490C31088017E0C148007979
:1014900078B9C048407960B9BE48807948B9BD483C
:1014A000C079012805D1BF480088BC490C310880AB
:1014B00004E0BD480088B9490C310880B54800797E
:1014C00080B9B448407901280CD1B248807901280C
:1014D00008D1B048C07928B9B3480088AF4908316D
:1014E00008803EE0AB48007978B9AA4840790128E5
:1014F0000BD1A848807940B9A648C07928B9A64838
:101500000088A649083108802BE0A248007901280C
:101510000FD1A048407901280BD19E48807940B96D
:101520009C48C07928B99E4800889C4908310880A9
:1015300017E09848007901280ED19648407958B9AB
:101540009448807940B99348C07928B99548008873
:1015500092490831088004E0934800888F49083197
:10156000088034E50120FFF749FC8A48007880B9FB
:101570008848407801280CD186488078012808D115
:101580008448C07828B9894800888449091D0880A2
:101590003EE08048007878B97E48407860B97D4860
:1015A0008078012808D17B48C07828B98048008815
:1015B0007A49091D08802BE07648007880B9754883
:1015C000407868B973488078012809D17148C0789B
:1015D000012805D1774800887049091D088017E067
:1015E0006C48007878B96B48407860B96948807871
:1015F00048B96848C078012805D16F480088674914
:10160000091D088004E06D4800886449091D0880B0
:101610006048007878B95F48407801280BD15D4870
:101620008078012807D15B48C07820B95F480088DE
:101630005A4908803AE05748007870B955484078D0
:1016400001280AD15348807838B95248C07820B967
:10165000574800885149088028E04E480078012802
:101660000ED14C48407801280AD14A48807838B9D0
:101670004848C07820B94F4800884849088015E09C
:101680004448007801280DD14248407850B941487B
:10169000807838B93F48C07820B9474800883F492A
:1016A000088003E0414800883C490880434800889E
:1016B0003A490C31088041480088091F088086E4B7
:1016C0000120FFF79BFB3348007880B93148407810
:1016D00001280CD12F488078012808D12D48C078E6
:1016E00028B9374800882D49091D08803EE029485F
:1016F000007878B92748407860B926488078012872
:1017000008D12448C07828B92E4800882349091DEB
:1017100008802BE01F48007880B91E48407868B9DF
:101720001C488078012809D11A48C078012805D1C1
:10173000254800881949091D088017E015480078D8
:1017400078B91448407860B91248807848B911488F
:10175000C078012805D11D4800881049091D08805E
:1017600004E0174800880D49091D088009480078E1
:1017700078B90848407801282AD10648807801289D
:1017800026D10448C07820B90D4800880349088054
:1017900059E01DE0220100207400002034040040C4
:1017A000780000207C00002070000020480000200D
:1017B0005000002054000020580000203400002079
:1017C0005C00002064000020680000206C00002005
:1017D000FE48007870B9FD48407801280AD1FB48DE
:1017E000807838B9F948C07820B9F9480088F949B3
:1017F000088028E0F548007801280ED1F3484078A9
:1018000001280AD1F148807838B9F048C07820B969
:10181000F1480088EF49088015E0EC48007801287D
:101820000DD1EA48407850B9E848807838B9E7489F
:10183000C07820B9E9480088E649088003E0E84814
:101840000088E4490880E148007980B9DF484079A0
:1018500001280CD1DD488079012808D1DB48C07906
:1018600028B9DF480088DB490C3108803EE0D748C2
:10187000007978B9D548407960B9D4488079012891
:1018800008D1D248C07928B9D1480088D1490C3153
:1018900008802BE0CD48007980B9CC48407968B900
:1018A000CA488079012809D1C848C079012805D1E2
:1018B000C9480088C7490C31088017E0C34800793F
:1018C00078B9C248407960B9C048807948B9BF4802
:1018D000C079012805D1C1480088BE490C31088073
:1018E00004E0BF480088BB490C310880B748007944
:1018F00080B9B648407901280CD1B44880790128D4
:1019000008D1B248C07928B9B5480088B149083132
:1019100008803EE0AD48007978B9AC4840790128AC
:101920000BD1AA48807940B9A848C07928B9A848FD
:101930000088A849083108802BE0A44800790128D4
:101940000FD1A248407901280BD1A048807940B935
:101950009E48C07928B9A04800889E49083108806F
:1019600017E09A48007901280ED19848407958B973
:101970009648807940B99548C07928B99748008839
:1019800094490831088004E095480088914908315D
:10199000088085E40120FFF731FA8C48007880B98F
:1019A0008A48407801280CD188488078012808D1DD
:1019B0008648C07828B98B4800888649091D088068
:1019C0003EE08248007878B98048407860B97F4826
:1019D0008078012808D17D48C07828B982480088DD
:1019E0007C49091D08802BE07848007880B9774849
:1019F000407868B975488078012809D17348C07863
:101A0000012805D1794800887249091D088017E02E
:101A10006E48007878B96D48407860B96B48807836
:101A200048B96A48C078012805D1704800886949DA
:101A3000091D088004E06B4800886649091D08807C
:101A40006248007878B96148407801280BD15F4836
:101A50008078012807D15D48C07820B961480088A6
:101A60005C4908803AE05948007870B95748407896
:101A700001280AD15548807838B95448C07820B92F
:101A8000594800885349088028E0504800780128C8
:101A90000ED14E48407801280AD14C48807838B998
:101AA0004A48C07820B9524800884A49088015E061
:101AB0004648007801280DD14448407850B9434841
:101AC000807838B94148C07820B9484800884149F1
:101AD000088003E0434800883E4908803B4800797D
:101AE00080B93A48407901280CD1384880790128DA
:101AF00008D13648C07928B93A48008835490C31B0
:101B000008803EE03148007978B93048407960B9C2
:101B10002E488079012808D12C48C07928B932484C
:101B200000882C490C3108802BE02848007980B9C6
:101B30002648407968B925488079012809D1234889
:101B4000C079012805D12A48008822490C31088033
:101B500017E01E48007978B91C48407960B91B48E5
:101B6000807948B91948C079012805D11F480088F3
:101B700018490C31088004E01A48008815490C31D6
:101B800008801248007980B91048407901280CD1AA
:101B90000E488079012808D10C48C07928B911482D
:101BA00000880C490831088050E00848007920BBC3
:101BB00006484079012820D104488079E8B90348D3
:101BC000C079D0B908480088024913E022010020FA
:101BD0006400002034040040680000206C000020F5
:101BE0005C000020240000202C0000205400002075
:101BF000300000200831088028E0F84800790128EA
:101C00000ED1F648407901280AD1F448807938B9D4
:101C1000F248C07920B9F2480088F249088015E0FE
:101C2000EE48007901280DD1EC48407950B9EB48D5
:101C3000807938B9E948C07920B9EB480088E9498A
:101C4000088003E0E9480088E649088089E4072025
:101C5000FFF7D4F8E148007880B9E04840780128DF
:101C60000CD1DE488078012808D1DC48C07828B93A
:101C7000DE480088DB49091F08803EE0D74800782D
:101C800078B9D648407860B9D4488078012808D11E
:101C9000D248C07828B9D6480088D249091F0880A0
:101CA0002BE0CE48007880B9CC48407868B9CB4862
:101CB0008078012809D1C948C078012805D1CD48CC
:101CC0000088C849091F088017E0C448007878B91F
:101CD000C248407860B9C148807848B9BF48C078E8
:101CE000012805D1C3480088BE49091F088004E0C7
:101CF000BE480088BB49091F0880B848007880B9F1
:101D0000B648407801280CD1B4488078012808D121
:101D1000B248C07828B9B5480088B2490839088067
:101D20003EE0AE48007878B9AC48407801280BD145
:101D3000AA48807840B9A948C07828B9AC4800883A
:101D4000A849083908802BE0A448007801280FD161
:101D5000A248407801280BD1A048807840B99F481C
:101D6000C07828B9A44800889E490839088017E03F
:101D70009A48007801280ED19848407858B9974879
:101D8000807840B99548C07828B99A480088954924
:101D90000839088004E0954800889249083908808D
:101DA0008E48007980B98D48407901280CD18B4844
:101DB0008079012808D18948C07928B98B480088E2
:101DC0008849091D08803EE08448007978B9834835
:101DD000407960B981488079012808D17F48C0796D
:101DE00028B9834800887F49091D08802BE07B487B
:101DF000007980B97948407968B9784880790128B4
:101E000009D17648C079012805D17B4800887549F9
:101E1000091D088017E07148007978B96F4840794A
:101E200060B96E48807948B96C48C079012805D1FD
:101E3000704800886B49091D088004E06B480088E1
:101E40006849091D08806548007978B96348407978
:101E500001280BD161488079012807D15F48C079FA
:101E600020B9624800885F4908803AE05B48007901
:101E700070B95A48407901280AD15848807938B950
:101E80005648C07920B95A4800885649088028E049
:101E90005248007901280ED15048407901280AD1D2
:101EA0004E48807938B94D48C07920B952480088E9
:101EB0004C49088015E04948007901280DD1474870
:101EC000407950B94548807938B94448C07920B93B
:101ED000484800884349088003E044480088414955
:101EE000088056E50420FEF789FF40F648503D493A
:101EF00008390880091D08803A49091D0880091F12
:101F0000088046E50120FEF779FF3448007880B963
:101F10003248407801280CD130488078012808D117
:101F20002E48C07828B9314800882E49091F0880FA
:101F30007EE02A48007890B92848407878B9274848
:101F4000807801280BD12548C07840B928480088FE
:101F50002449091F088000202849086068E01F48BC
:101F6000007888B91D48407870B91C48807858B905
:101F70001A48C07840B92148006828B91E4800882E
:101F80001849091F088053E01448007878B91348AD
:101F9000407860B91148807848B91048C078012865
:101FA00005D1144800880F49091F088040E00B48FC
:101FB0000078012824D109484078012820D1074819
:101FC000807801281CD10548C078012818D107481D
:101FD00000880449091F08802AE00000220100202F
:101FE000300000203C040040540000203400002059
:101FF0003C0000204400002040000020B4000020ED
:10200000FE48007880B9FD48407801280CD1FB4893
:102010008078012808D1F948C078012804D1F8480F
:102020000088F849088003E0F5480088F5490880F1
:10203000F248007880B9F148407801280CD1EF4887
:102040008078012808D1ED48C07828B9EC4800888C
:10205000EC49091F08806DE0E848007890B9E7482E
:10206000407801280ED1E548807858B9E348C07817
:1020700040B9E5480088E349091F08800120E34989
:10208000086057E0DD48007890B9DC48407878B9BE
:10209000DA48807860B9D948C07848B9DB48006828
:1020A000012805D1DA480088D649091F088041E097
:1020B000D248007801280ED1D048407858B9CF488E
:1020C000807840B9CD48C07828B9D2480088CD4939
:1020D000091F08802EE0C9480078012811D1C7489F
:1020E000407801280DD1C5488078012809D1C3481E
:1020F000C078012805D1C2480088C249091F08805C
:1021000018E0BE48007888B9BC48407801280DD155
:10211000BA488078012809D1B848C078012805D18B
:10212000B7480088B749091F088003E0B448008811
:10213000B4490880B148007980B9B0484079012895
:102140000CD1AE488079012808D1AC48C07928B9B3
:10215000B1480088AB490831088082E0A74800797F
:1021600090B9A648407978B9A448807901280BD164
:10217000A248C07940B9A4480088A2490831088023
:102180000020A64908606CE09C48007988B99B480B
:10219000407970B99948807958B99848C07940B960
:1021A0009E48006828B99A480088964908310880F6
:1021B00057E09248007978B99048407960B98F48E3
:1021C000807948B98D48C079012805D191480088A7
:1021D0008C490831088044E088480079012811D1F1
:1021E0008648407901280DD184488079012809D199
:1021F0008248C079012805D1874800888149083183
:1022000008802EE07D480079012811D17B48407973
:1022100001280DD179488079012809D17748C07902
:10222000012805D17C48008876490831088018E0EB
:102230007248007988B97148407901280DD16F48FA
:102240008079012809D16D48C079012805D17248EB
:1022500000886C490831088003E0694800886949B2
:1022600008806648007980B96448407901280CD11B
:1022700062488079012808D16048C07928B9664849
:1022800000886049091D088069E05C48007990B9C0
:102290005A48407901280ED15848807958B9574892
:1022A000C07940B9584800885649091D0880012066
:1022B0005A49086053E05148007970B94F48407955
:1022C00058B94E48807940B94C48C07928B950482F
:1022D00000884C49091D088041E0484800790128E0
:1022E0000ED14648407958B94448807940B94348AE
:1022F000C07928B9474800884249091D08802EE066
:102300003E480079012811D13C48407901280DD17F
:102310003A488079012809D13848C079012805D187
:102320003D4800883749091D088018E03348007986
:1023300088B93248407901280DD130488079012888
:1023400009D12E48C079012805D1334800882D498C
:102350000831088003E02A4800882A490880E6E21C
:102360000120FEF74BFD2548007878B923484078D6
:1023700001280BD121488078012807D11F48C07857
:1023800020B9274800881F49088055E01B4800787D
:1023900070B91A48407858B918488078012807D190
:1023A0001648C07820B91F4800881649088043E0C5
:1023B0001248007878B91148407860B90F488078A1
:1023C000012808D10D48C078012804D1164800889A
:1023D0000C49088030E00948007870B90748407817
:1023E00058B90648807840B90448C07801281FD100
:1023F0000E480088034908801EE019E022010020F1
:1024000034000020380400403C000020B4000020CC
:10241000400000204400002038000020B8000020C8
:102420008000002084000020880000208C00002014
:10243000F7480088F7490880F748007880B9F648DF
:10244000407801280CD1F4488078012808D1F2485E
:10245000C07828B9EE480088EE49091F08803EE0A0
:10246000ED48007878B9EC48407801280BD1EA486B
:10247000807840B9E848C07828B9E8480088E5493C
:10248000091F08802BE0E448007801280FD1E248BA
:10249000407801280BD1E048807840B9DE48C07808
:1024A00028B9DF480088DB49091F088017E0DA48AF
:1024B000007801280ED1D848407858B9D64880789D
:1024C00040B9D548C07828B9D6480088D149091FF5
:1024D000088004E0CE480088CE49091F0880CE4815
:1024E000007980B9CC48407901280CD1CA4880795C
:1024F000012808D1C848C07928B9C5480088C5490D
:10250000083108803EE0C448007978B9C248407973
:1025100060B9C1488079012808D1BF48C07928B97D
:10252000BE480088BB49083108802BE0BA480079D2
:1025300080B9B948407968B9B7488079012809D18C
:10254000B548C079012805D1B5480088B14908319E
:10255000088017E0B048007978B9AF48407960B991
:10256000AD48807948B9AC48C079012805D1AD485B
:102570000088A8490831088004E0A5480088A549DA
:1025800008310880A448007980B9A348407901281F
:102590000CD1A1488079012808D19F48C07928B979
:1025A0009B4800889B49091D08803EE09A480079B5
:1025B00078B99948407901280BD19748807940B97A
:1025C0009548C07928B9954800889249091D088026
:1025D0002BE09148007901280FD18F4840790128DC
:1025E0000BD18D48807940B98B48C07928B98C4887
:1025F00000888849091D088017E08748007901286C
:102600000ED18548407958B98348807940B98248CD
:10261000C07928B9834800887E49091D088004E0F4
:102620007B4800887B49091D088080E10120FEF776
:10263000E5FB7948007878B97748407801280BD1D4
:1026400075488078012807D17348C07820B976484A
:102650000088704908803AE06F48007870B96E4889
:10266000407858B96C488078012807D16A48C0780A
:1026700020B96E4800886749088028E066480078DD
:1026800078B96548407860B963488078012808D1F6
:102690006148C078012804D1654800885D490880F8
:1026A00015E05D48007870B95B48407858B95A48E1
:1026B000807840B95848C078012804D15D48008826
:1026C0005449088003E0584800885249088052481D
:1026D000007880B95048407801280CD14E48807865
:1026E000012808D14C48C07828B953480088494986
:1026F000091F08803EE04848007878B9464840788D
:1027000001280BD14448807840B94348C07828B9A3
:102710004A4800883F49091F08802BE03E4800785E
:1027200001280FD13C48407801280BD13A488078E5
:1027300040B93948C07828B9414800883549091F4F
:10274000088017E03448007801280ED132484078DC
:1027500058B93148807840B92F48C07828B93948ED
:1027600000882C49091F088004E033480088294963
:10277000091F08802848007980B927484079012836
:102780000CD125488079012808D12348C07928B97F
:10279000294800881F49083108805AE01E480079FE
:1027A00078B91D48407960B91B488079012808D163
:1027B0001948C07928B9214800881649083108808D
:1027C00047E01548007980B91348407968B9124844
:1027D0008079012809D11048C079012805D118480D
:1027E00000880C490831088033E00B48007958BB59
:1027F0000948407940BB0848807928BB0648C07921
:10280000012822D10F48008802490831088020E0C1
:1028100080000020380400402201002084000020B5
:10282000880000208C0000209400002098000020E8
:102830009C000020A0000020A4000020A800002090
:10284000AC000020B0000020FFE7FE480088FE49F1
:102850000880FE48007980B9FC48407901280CD1F5
:10286000FA488079012808D1F848C07928B9F84891
:102870000088F549091F08803EE0F448007978B9DE
:10288000F248407901280BD1F048807940B9EF48EF
:10289000C07928B9EF480088EB49091F08802BE070
:1028A000EA48007901280FD1E848407901280BD186
:1028B000E648807940B9E548C07928B9E6480088FB
:1028C000E149091F088017E0E048007901280ED18E
:1028D000DE48407958B9DD48807940B9DB48C07995
:1028E00028B9DE480088D849091F088004E0D84884
:1028F0000088D549091F088019E00220FEF77EFAFA
:1029000040F6B830D0490C390880091D0880091DEF
:102910000880091D08800AE00120FEF76FFA41F2E5
:1029200088331A4619461846FEF75EFA00BF00BF04
:1029300010BD10B5CA48007851287CD2DFE810F0ED
:10294000510066007C00E800FD001A012C013A01EC
:1029500067019B01AA01BA0101025D026D02120228
:102960007F027B00B702C702D902E90209031603FE
:10297000380348037B007B007B007B007B007B00EF
:102980007B007B007B007B007B007B007B007B006F
:10299000CD017B00E501F2017B0024023602FA0240
:1029A00026039000B900470157014402D8017B007B
:1029B000A5007B007B007B00CE008D02A902730383
:1029C0008303B903C903F4037B007B006403AA03F8
:1029D000E50304047B001304230432047B007B0022
:1029E0004E040E209F49087041F288309E490860CD
:1029F00000209E4908709548007A012805D1934827
:102A0000407A012801D19649087005E20E209549C7
:102A1000087041F28830944908600020934908709A
:102A20008A48007A30B98948407A012802D10220C8
:102A30008B490870F4E3EBE30E208A49087041F2F9
:102A40008830894908600020884908707F48007AEA
:102A500028B97E48407A10B9312081490870DFE3F7
:102A60000E208049087041F288307F4908600020BC
:102A70007E4908707548007A30B97448407A012858
:102A800002D1382076490870CAE30E2075490870D3
:102A900041F28830744908600020744908706B481E
:102AA000007A28B96948407A10B932206C49087018
:102AB000B6E300206B49087041F288306A4908602B
:102AC00000206A4908706148007A30B95F48407A4E
:102AD000012802D13C2062490870A1E300205A4934
:102AE0000C390880091D0880091D0880091D08800F
:102AF00001205E4908700520FEF780F94FF47A70D6
:102B000000F02BFF00F0E6FB03205549087087E337
:102B100000205449087041F2883053490860002071
:102B2000524908704948007A012805D14748407A3F
:102B300010B904204A49087072E30F20494908700F
:102B4000002041490C390880091D0880091D0880B2
:102B5000091D08800120454908700520FEF74EF93F
:102B60004FF47A7000F0F9FE00F068FB05203C4954
:102B7000087055E30D203B49087041F288303A490E
:102B800008600020394908703048807A012802D155
:102B900006203349087043E30420324908700120BD
:102BA0003249087029488078012802D107202C4931
:102BB000087035E300202B4908702C490870234821
:102BC000C07A012802D108202549087028E3002096
:102BD0002449087025490870012000F0BEFE1B48FA
:102BE000C07A012802D108201D49087018E300208E
:102BF0001C4908701D490870012000F0AEFE134802
:102C0000C07A012802D108201549087008E307207E
:102C100014490870012015490870FEF7EFF841F2D9
:102C2000707009490C390880091D0880091D088049
:102C3000091D088000F06AFB4FF47A7000F08DFEE9
:102C4000092015E0A40000204004004022010020DB
:102C500094000020980000209C000020A00000208C
:102C6000BC0000201C00002020000020BD0000202F
:102C7000FE490870D4E20020FD490870FD49087043
:102C8000FD48007A28B9FC48407A10B90A20F74973
:102C90000870C5E20020F6490870F6490870F64849
:102CA000007A012805D1F448407A10B90B20EF4989
:102CB0000870B5E20320EE4908700120ED49087064
:102CC0000520FEF79BF84FF47A7000F046FE00F006
:102CD0004DFB2820E5490870A2E20A20E44908706B
:102CE000E548C07A012802D13620E049087097E211
:102CF0000A20DF49087000F030FEDF48C07A012862
:102D000002D12A20D94908708AE20420D8490870E3
:102D1000D948407828B9D848807810B92B20D349B1
:102D200008707DE20420D2490870D34880780128D9
:102D300006D1D1484078012802D10C20CB49087037
:102D40006EE20520CA4908700120CA490870CA48C5
:102D5000007A30B9C848407A012802D12D20C349F1
:102D600008705DE20520C24908700120C149087061
:102D7000C1484079012806D1BF488079012802D195
:102D80002D20BA4908704BE20920B949087001208A
:102D9000B8490870B8480078012806D1B64840788C
:102DA000012802D12E20B149087039E20920B0492A
:102DB00008700120AF490870AF48007B012802D19C
:102DC0000D20AA4908702BE20920A94908700120AA
:102DD00000F0C3FD0120A7490870A748007858B942
:102DE000A548407840B9A448807828B9A248C0785E
:102DF00010B90D209D49087012E206209C49087008
:102E000001209C4908709C48807828B99A484078ED
:102E100010B90E209549087002E206209449087006
:102E200001209449087094484078012806D19248BE
:102E30008078012802D110208C490870F0E10C2024
:102E40008B49087000208B4908708B48007B012853
:102E500002D13D2085490870E2E10F2084490870C5
:102E6000002086490880091D0880091D0880091D69
:102E7000088001207F4908700520FDF7BFFF4FF44F
:102E80007A7000F06AFD00F0D1FA3E2077490870B0
:102E9000C6E10C2076490870002076490870764813
:102EA000007B012802D1122070490870B8E1062089
:102EB0006F49087001206F4908706F48407828B941
:102EC0006D48807810B9132068490870A8E1062081
:102ED00067490870012067490870674880780128B1
:102EE00006D165484078012802D114205F49087056
:102EF00096E100205E4908705E4908705E48007ADD
:102F0000012805D15C48407A10B91520574908704E
:102F100086E10320564908700120564908700520B3
:102F2000FDF76CFF41F2883000F017FD2F204F496C
:102F3000087075E100204E4908704E4908704E48EF
:102F4000007A28B94C48407A10B9162047490870D1
:102F500066E1002046490870464908704648807A74
:102F6000012802D117204149087059E10420404945
:102F7000087001203F4908703F48407828B93E4812
:102F8000807810B930203949087049E10420384967
:102F9000087001203749087037484078012806D169
:102FA00035488078012802D118203049087037E16F
:102FB00000202F4908702F4908702F48007A0128F7
:102FC00005D12D48407A10B919202849087027E109
:102FD0000F2027490870002028490880091D088013
:102FE000091D0880091D088001202249087005205C
:102FF000FDF704FF4FF47A7000F0AFFC00F032FAF6
:1030000046201A4908700BE1002019490870194937
:1030100008701948007A28B91748407A10B93F203B
:1030200012490870FCE0002011490870114908702D
:103030001148007A012805D10F48407A10B9402084
:103040000A490870ECE00F200949087000200B497C
:103050000880091D0880091D0880091D08800120BD
:10306000044908700520FDF7C9FE09E0BC000020F6
:103070001C000020BD00002022010020340400407C
:103080004FF47A7000F069FC00F0FBF947206549C5
:103090000870C5E0002064490870644908706448FD
:1030A000007A28B96248407A10B941205D49087019
:1030B00000BF00205C4908705C4908705C48007AD9
:1030C000012805D15A48407A10B942205549087064
:1030D000A6E00F2054490870002056490880091DB9
:1030E0000880091D0880091D088001204F490870CB
:1030F0000520FDF783FE4FF47A7000F02EFC00F0FF
:10310000CEF94820474908708AE0002046490870F7
:10311000464908704648007A28B94548407A10B9AF
:103120004320404908707BE000203F4908703F4938
:1031300008703F48007A012805D13D48407A10B90F
:103140004920384908706BE000203749087037493A
:1031500008703748007A28B93548407A10B94B20B2
:10316000304908705CE000202F4908702F49087032
:103170002F48007A012805D12D48407A10B94C20FB
:10318000284908704CE0002027490870274908703A
:103190002748007A28B92648407A10B94D2021499D
:1031A00008703DE00F202049087000202149088068
:1031B000091D0880091D0880091D088001201B4980
:1031C00008700520FDF71AFE4FF47A7000F0C5FB79
:1031D00000F074F950201349087021E00F201249C3
:1031E0000870002013490880091D0880091D088007
:1031F000091D088001200D4908700520FDF7FEFD1E
:103200004FF47A7000F0A9FB50200649087007E0DF
:103210000020054908704FF461700749086000BF3D
:1032200000BF10BDBC0000201C000020BD0000201D
:1032300022010020340400402000002010B540F29C
:103240009E70A649088042E000224FF47A714FF444
:103250002F6000F04CFA002403E0642000F07DFBB6
:10326000641C142CF9DB00BF9D48008800F00100AD
:103270000028F9D140F2267406E04FF080418C8797
:10328000022000F06AFB0A3C40F2D6608442F4DC83
:103290004FF47A7000F061FB01224FF47A714FF421
:1032A0002F6000F024FA002403E0642000F055FBB6
:1032B000641C142CF9DB00BF8948008800F0010071
:1032C0000028F9D140F25D708449088000E0BBE736
:1032D00000BF10BD10B540F29E708049088012E01A
:1032E00001224FF47A7141F2707000F000FA42F25C
:1032F000107000F032FB00BF7948008800F0010038
:103300000028F9D100E0EBE700BF10BD10B52AE0BE
:1033100000224FF47A71480000F0E9F9002403E03C
:10332000642000F01AFB641C142CF9DB00BF6C480D
:10333000008800F001000028F9D140F2267405E071
:1033400068490C80022000F008FB0A3C40F2D6607D
:103350008442F5DC4FF47A7000F0FFFA40F21C7002
:103360005E49088000E0D3E700BF10BD10B52CE037
:1033700000224FF47A7140F26C7000F0B8F900242A
:1033800003E0642000F0E9FA641C142CF9DB00BFB0
:103390005348008800F001000028F9D140F226745B
:1033A00006E04FF080418C86022000F0D6FA0A3CFD
:1033B00040F2D6608442F4DC4FF47A7000F0CDFA2B
:1033C00040F2D6604549088000E0D1E700BF10BD5B
:1033D00010B528E000224FF47A7140F26C7000F0D2
:1033E00086F9002403E0642000F0B7FA641C142C72
:1033F000F9DB00BF3A48008800F001000028F9D14D
:1034000040F2267406E04FF080418C86022000F0E6
:10341000A4FA0A3C40F2D6608442F4DC4FF47A709D
:1034200000F09BFA00E0D5E700BF10BD10B516E034
:1034300001224FF47A7140F63C7000F058F90024F4
:1034400003E0642000F089FA641C142CF9DB00BF4F
:103450002348008800F001000028F9D100E0E7E7E8
:1034600000BF10BD10B540F29E701C49088041F2AB
:10347000883000F072FA40F226704FF08041888761
:1034800010BD10B540F25D701449088041F28830DB
:1034900000F063FA4FF4EB601249088010BD10B5DC
:1034A00040F21C700D49088041F2883000F055FA56
:1034B00040F226704FF08041888610BD10B540F272
:1034C000D6600649088041F2883000F046FA4FF491
:1034D000EB604FF08041088710BD000034080040C9
:1034E000002C01404000004008B50121102000F0F0
:1034F000D9FE0520ADF8000010208DF80300032050
:103500008DF802006946CB4800F010FC0121C94843
:1035100000F0B9FC0421C74800F0B7FC08BD30B585
:1035200089B004460D460121C80200F0BBFE01210E
:10353000042000F0B7FE4FF48070ADF82000182092
:103540008DF8230003208DF8220008A9BA4800F066
:10355000EDFB05A801F00AFBADF81840ADF81450DA
:103560000020ADF81A00ADF8160005A9B34800F028
:10357000D1FF0121B14801F003FE0121AF4801F064
:103580007DFD0821AD4801F091FD7020ADF80400EB
:103590000120ADF806000020ADF808006010ADF87D
:1035A0000A000020ADF80C0001A9A44800F0EFFFCC
:1035B0000821A24801F03AFC0121A04801F006FCD4
:1035C000012211469D4801F01CFB19208DF80000D6
:1035D00001208DF801008DF802008DF80300684687
:1035E00000F0DBFA0121954801F0CAFD0121934862
:1035F00001F0ECFA09B030BD10B501218F4801F09F
:10360000AEFD00285AD001218C4801F0B9FD8C484C
:103610000078002841D18B48006848B1FF208749D5
:103620003031088087480068401E8649086010E0F5
:103630008548007860B184480078401E7F49303169
:10364000088000208049087001207D49087000E052
:1036500024E00121794801F0DDFA0121774801F0E9
:10366000C1FA0121754801F0B1FA784800780128C3
:1036700009D1724830300088401C754909680844F7
:10368000734908601AE06D4830300088401C70496A
:103690000968081A6E49086010E000BF01206849F7
:1036A00008700021654801F09DFA0021634801F08F
:1036B0008DFA6748016867A001F0FAFF10BD70B588
:1036C00004466848B0FBF4F0401E85B229465B48CA
:1036D00001F012FD6910594801F012FD0021574810
:1036E00001F008FD0121554801F070FA70BD70B578
:1036F00004460D461646002C03DC5BA001F0D8FF03
:1037000070BD4E48008800F0010018B161A001F0C2
:10371000CFFFF5E7142D02D36D48854203D96D48DC
:1037200001F0C6FFECE74948067000786A49086076
:1037300046480078012805D145480068204467497B
:10374000086007E04148007820B941480068001B44
:10375000624908602046E11704EB11610912394AF9
:103760001160E11704EB11610912A4EB0121364A43
:1037700011700020324908702846FFF7A0FF00BFF3
:10378000BEE770B505460C462C48008800F00100E5
:1037900018B140A001F08CFF70BD142C02D34C482E
:1037A000844203D94B4801F083FFF5E74B4805609D
:1037B00000682749096888423AD048480068244987
:1037C0000968884203DD01202049087002E00020DA
:1037D0001E4908701D4800783F4908603F4A12683A
:1037E0001B4B1B68D11A002901DB0A4600E04A4244
:1037F0001046D21700EB12621212124B1A60374AAF
:103800001268134B1B68D11A002901DB0A4600E03D
:103810004A421046D21700EB12621212A0EB0222AB
:10382000094B1A700020064908702046FFF747FF31
:1038300000BFB1E70010014000080140002C01402A
:10384000D1000020D4000020D0000020E0000020A3
:10385000DC000020B5B1C7B0CEBBD6C33D256C643B
:103860000D0A000040420F000D0A546865206E7575
:103870006D2073686F756C64206265206772656186
:10388000746572207468616E207A65726F21210DF3
:103890000A0000000D0A546865206C61737420747E
:1038A000696D652070756C736573206973206E6F28
:1038B000742073656E642066696E69736865642C34
:1038C0007761697420706C65617365210D0A000071
:1038D000A08601007459000880012242D80000200F
:1038E00010B56FF0040000F0A2F92E4800682E49D0
:1038F000B0FBF1F02D4908700846007800EB40015C
:10390000C1EBC0104FF6FF7101EAC00028490880E2
:1039100010BD0146254A12784A434FF0E0235A6110
:1039200000229A611A46126942F001021A6100BF30
:103930004FF0E022106900F001021AB100F4803269
:10394000002AF5D04FF0E022126922F001024FF078
:10395000E0231A6100229A6170470146144A1288D6
:103960004A434FF0E0235A6100229A611A461269D5
:1039700042F001021A6100BF4FF0E022106900F02E
:1039800001021AB100F48032002AF5D04FF0E02293
:10399000126922F001024FF0E0231A6100229A61BD
:1039A000704700000000002000127A00E2000020B2
:1039B000E4000020014600BF704770B504460D4684
:1039C00000BF40215D4801F089FD0028F9D0E1B237
:1039D0005A4801F015FD204670BD10B586B004466A
:1039E000012144F2040000F05DFC544801F0CCFBDE
:1039F0004FF40070ADF8140003208DF81600182065
:103A00008DF8170005A94E4800F090F94FF480603A
:103A1000ADF8140004208DF8170005A9484800F0FF
:103A200085F901940020ADF80800ADF80A00ADF862
:103A30000C00ADF810000C20ADF80E0001A93F48B5
:103A400001F0E5FB25208DF8000003208DF8010032
:103A50008DF8020001208DF80300684600F09DF803
:103A6000012240F22551354801F069FC012133481B
:103A700001F059FC06B010BD10B540F225512F4899
:103A800001F042FD002833D02C4801F0BDFCC4B247
:103A9000AA2C0CD12B48008848B92A48008840F449
:103AA0008040284908800846007827490C5425485A
:103AB000008880B12348007823490C5421480178BC
:103AC00022480078C01C814205D11E48008840F47D
:103AD00000401C4908801B480078022803D11A487E
:103AE00080781A49087017480088401C15490880DA
:103AF00010BD70B505460E4600240BE0295D0F4849
:103B000001F07EFC00BF40210C4801F0E7FC0128D9
:103B1000F9D1641CB442F1DB70BD02460020094BB0
:103B20001B780B7000BF04E0074B1B5C1354431C55
:103B3000D8B20B788342F7DC7047000000380140B0
:103B400000080140EE00002032010020EC000020BF
:103B50000948804709480047FEE7FEE7FEE7FEE721
:103B6000FEE7FEE7FEE7FEE7FEE7FEE7044805495D
:103B7000054A064B70470000BF04000831010008E9
:103B8000B0010020B0070020B0030020B0030020E7
:103B900031490143314A1160704770B5002100235B
:103BA0000F22C47804B32D4C246804F4E064C4F5F7
:103BB000E064210AC1F10403CA40447804FA03F125
:103BC0008478144021430901254C0678A1550478D6
:103BD00004F01F050124AC4005786D11AD0005F11E
:103BE000E025C5F8004109E0047804F01F05012430
:103BF000AC401C4D0678761145F8264070BD1A4A37
:103C00000A400243154B1B1F1A60704739B1134A13
:103C1000121D12680243114B1B1D1A6006E00F4A69
:103C2000121D126882430D4B1B1D1A607047042839
:103C300008D14FF0E021096941F004014FF0E02282
:103C4000116107E04FF0E021096921F004014FF014
:103C5000E0221161704700000000FA050CED00E061
:103C600000E400E080E100E080FFFF1F10B50446A3
:103C7000CC48844208D10121042000F02DFB002112
:103C8000042000F029FB46E0C748844208D1012106
:103C9000082000F021FB0021082000F01DFB3AE085
:103CA000C248844208D10121102000F015FB0021F8
:103CB000102000F011FB2EE0BD48844208D1012104
:103CC000202000F009FB0021202000F005FB22E06D
:103CD000B848844208D10121402000F0FDFA0021BB
:103CE000402000F0F9FA16E0B348844208D10121DF
:103CF000802000F0F1FA0021802000F0EDFA0AE0C7
:103D0000AE48844207D10121801500F0E5FA002178
:103D1000A01500F0E1FA10BD10B50121084600F031
:103D2000DBFA0021012000F0D7FA10BD2DE9F041A7
:103D3000024600250026002000230024002791F8D9
:103D400003C00CF00F0591F803C00CF0100CBCF18F
:103D5000000F03D091F802C04CEA050591F800C0AD
:103D6000BCF1000F31D0146800202BE04FF0010CA3
:103D70000CFA00F3B1F800C00CEA03069E4220D111
:103D800083004FF00F0C0CFA03F7BC4305FA03FC59
:103D90004CEA040491F803C0BCF1280F06D14FF09F
:103DA000010C0CFA00FCC2F814C00AE091F803C040
:103DB000BCF1480F05D14FF0010C0CFA00FCC2F821
:103DC00010C0401C0828D1D31460B1F800C0BCF169
:103DD000FF0F34DD546800202EE000F1080C4FF096
:103DE000010808FA0CF3B1F800C00CEA03069E4281
:103DF00021D183004FF00F0C0CFA03F7BC4305FAF6
:103E000003FC4CEA040491F803C0BCF1280F05D16F
:103E100000F1080C08FA0CF8C2F8148091F803C0FD
:103E2000BCF1480F07D100F1080C4FF0010808FA67
:103E30000CF8C2F81080401C0828CED35460BDE8AE
:103E4000F0814FF6FF710180022181700421C17061
:103E500070470246002093680B400BB1012000E040
:103E6000002070470146886880B2704702460020F3
:103E7000D3680B400BB1012000E0002070470146E1
:103E8000C86880B2704701617047416170470AB1EC
:103E9000016100E041617047C16070474FF48032BA
:103EA0000A43826181618261826982697047024648
:103EB0000020434B18684FF68073184040EA021008
:103EC00008433F4B186070473E49C8617047F0B5E2
:103ED0000A46002300240021002500F00046B6F128
:103EE000004F02D1364EF16901E0354E7168C0F3E2
:103EF000034583B200F44016B6F5401F08D121F007
:103F000070612F4E766826F070662D4F7E6012E04D
:103F100000F48016B6F5801F06D1032606FA05F4D4
:103F2000A14341F0706106E0460D360103FA06F642
:103F3000B14341F0706122B1460D360103FA06F635
:103F4000314300F00046B6F1004F02D11C4EF16142
:103F500001E01B4E7160F0BD30B500228B071C0FD5
:103F60000F2303FA04F2164B08338C1053F8243055
:103F70009343134C08348D1044F8253023468C109D
:103F800053F824308C07240F00FA04F423430C4C1C
:103F900008348D1044F8253030BD0A49DC31086002
:103FA0007047000000080140000C01400010014073
:103FB0000014014000180140001C01400020014095
:103FC0000000014000002042DF48006840F001008E
:103FD000DD49086008464068DC490840DA49486025
:103FE00008460068DA490840D74908600846006872
:103FF00020F4802008600846406820F4FE004860F5
:104000004FF41F0088607047CF49096821F4803160
:10401000CD4A11601146096821F480211160B0F584
:10402000803F03D0B0F5802F0ED106E0C649096865
:1040300041F48031C44A116007E0C349096841F482
:10404000A021C14A116000E000BF00BF704710B559
:1040500001460022002300204A11012A02D1BA4C55
:10406000236806E0022A02D1B74C236A01E0B64C6D
:10407000636A01F01F02012494401C400CB101202E
:1040800000E0002010BD38B500200090002400257D
:1040900000BF3120FFF7DBFF05460098401C009071
:1040A0000098B0F5A06F01D0002DF2D03120FFF7BD
:1040B000CEFF08B1012400E00024204638BD0146AF
:1040C0000020A14A106820F0F80040EAC10010600A
:1040D0007047A04908607047024600209A4B586814
:1040E00020F47C1042EA01031843974B5860704754
:1040F00098490866704701460020934A506820F0AE
:1041000003000843506070478F48406800F00C007F
:104110007047014600208C4A506820F0F0000843A8
:104120005060704701460020874A506820F4E060E4
:1041300008435060704701460020834A506820F4CD
:10414000605040EAC1005060704729B17E4A527AFF
:1041500002437D4B5A7204E07B4A527A82437A4B87
:104160005A7270477B49D831086070470146002079
:10417000754A506820F44040084350607047002161
:10418000714A20321170704A82F82010012802D042
:1041900004280AD104E001216B4A2032117005E0A5
:1041A0000521694A2032117000E000BF00BF70474E
:1041B0006949086070476449096A0143624A1162AB
:1041C0007047654944390860704730B500210022C6
:1041D000002400235C4D6D6805F00C0121B1042919
:1041E00005D0082923D105E05C4D056022E05B4D38
:1041F00005601FE0544D6D6805F47012524D6D68F6
:1042000005F48034022505EB92421CB9544D554308
:1042100005600BE04C4D6D6805F400351DB1504D47
:104220005543056002E04D4D5543056002E04B4D9E
:10423000056000BF00BF444D6D6805F0F00109093D
:10424000484D6B5C0568DD4045603F4D6D6805F489
:10425000E061090A434D6B5C4568DD4085603A4D7D
:104260006D6805F46051C90A3E4D6B5C4568DD40E0
:10427000C560354D6D6805F44041890B3A4D6B5C66
:10428000C568B5FBF3F5056130BD29B12E4A526909
:1042900002432D4B5A6104E02B4A526982432A4B58
:1042A0005A61704729B1284A92690243264B9A61A4
:1042B00004E0254A92698243234B9A61704729B1F1
:1042C000214AD2690243204BDA6104E01E4AD269D6
:1042D00082431D4BDA61704729B11B4AD268024301
:1042E000194BDA6004E0184AD2688243164BDA6050
:1042F000704729B1144A12690243134B1A6104E052
:10430000114A12698243104B1A61704712494039B1
:10431000086070470F49C86470470B49C8717047FF
:104320000948406A40F0807007494862704701467A
:104330000020054A92680A400AB1012000E00020EE
:104340007047014988727047001002400000FFF872
:10435000FFFFF6FE000042428004424200127A0053
:1043600000093D00F00000200001002010B50446C7
:10437000FE48844208D10121C014FFF7ADFF00219F
:10438000E014FFF7A9FFC4E0B4F1804F08D1012188
:104390000846FFF7AEFF00210120FFF7AAFFB8E0B3
:1043A000F348844208D101210220FFF7A2FF002137
:1043B0000220FFF79EFFACE0EE48844208D10121C5
:1043C0000420FFF796FF00210420FFF792FFA0E0F2
:1043D000E948844208D101210820FFF78AFF002123
:1043E0000820FFF786FF94E0E448844208D10121C9
:1043F0001020FFF77EFF00211020FFF77AFF88E0F2
:10440000DF48844208D101212020FFF772FF0021FC
:104410002020FFF76EFF7CE0DA48844208D10121BA
:104420004014FFF759FF00216014FFF755FF70E0BB
:10443000D548844209D10121C804FFF74DFF00216E
:104440004FF40020FFF748FF63E0D048844209D1D1
:1044500001210805FFF740FF00214FF48010FFF70E
:104460003BFF56E0CA48844209D101214805FFF7C5
:1044700033FF00214FF40010FFF72EFF49E0C5483D
:10448000844208D101214020FFF733FF0021402062
:10449000FFF72FFF3DE0C048844208D10121802072
:1044A000FFF727FF00218020FFF723FF31E0BB4803
:1044B000844208D101218015FFF71BFF0021A015C0
:1044C000FFF717FF25E0B648844209D1012108040F
:1044D000FFF702FF00214FF48030FFF7FDFE18E0E8
:1044E000B048844209D101214804FFF7F5FE0021BC
:1044F0004FF40030FFF7F0FE0BE0AB48844208D1E8
:1045000001218804FFF7E8FE00214FF48020FFF727
:10451000E3FE10BD00220288944B98420ED0994BC6
:1045200098420BD0B0F1804F08D0914B984205D003
:10453000904B984202D0904B984204D14FF68F7323
:104540001A404B881A438D4B984207D08C4B9842A7
:1045500004D04FF6FF431A40CB881A4302808B8861
:1045600083850B880385814B98420BD0854B9842FD
:1045700008D08B4B984205D08A4B984202D08A4B88
:10458000984201D10B7A038601238382704770B56C
:10459000002400220023058C4FF6FE76354005846A
:1045A000028C8388048B4FF68F752C40B51E2C40EF
:1045B0000D882C43751E2A400D892A434D882A43B5
:1045C0006A4DA8420BD06F4DA84208D0744DA84246
:1045D00005D0744DA84202D0734DA84213D14FF6B6
:1045E000F7752A404D892A434FF6FB752A408D887E
:1045F0002A434FF6FF652B404FF6FF552B408D8920
:104600002B43CD892B4383800483CD888586028408
:1046100070BD70B5002400220023058C4FF6EF76A4
:1046200035400584028C8388048B48F6FF752C4046
:104630004FF6FF452C400D884FF6FF7606EA05251C
:104640002C434FF6DF752A400D8906EA05152A43EB
:104650004D8806EA05152A43444DA84202D0494D2B
:10466000A8421DD14FF67F752A404D894FF6FF763F
:1046700006EA05152A434FF6BF752A408D8806EADB
:1046800005152A434FF6FF352B404FF2FF752B409F
:104690008D8906EA85052B43CD8906EA85052B43DE
:1046A00083800483CD880587028470BD70B50024A3
:1046B00000220023058C4FF6FF6635400584028CEE
:1046C0008388848B4FF68F752C404FF6FC752C40F9
:1046D0000D882C434FF6FF552A400D894FF6FF7683
:1046E00006EA05252A434D8806EA05252A431F4D7B
:1046F000A84202D0234DA8421DD14FF2FF752A4097
:104700004D894FF6FF7606EA05252A434FF6FF3519
:104710002A408D8806EA05252A434EF6FF752B4070
:104720004DF6FF752B408D8906EA05152B43CD8983
:1047300006EA05152B4383808483CD888587028410
:1047400070BD70B5002200230024058C4EF6FF7664
:1047500035400584038C8488828B48F6FF752A4097
:104760004FF6FF452A400D8820E00000002C014054
:104770000004004000080040000C00400010004011
:104780000014004000340140004C01400050014042
:104790000054014000180040001C00400020004070
:1047A0000040014000440140004801404FF6FF76C0
:1047B00006EA05252A434DF6FF752B400D8906EACA
:1047C00005352B434D8806EA05352B43FA4DA842A3
:1047D00002D0FA4DA84208D14BF6FF752C408D89C6
:1047E0004FF6FF7606EA85152C4384808283CD88B8
:1047F000A0F84050038470BD828B4FF2FF331A4003
:104800008283828B4FF6FF7303EA01231A4382836C
:104810007047F0B50C461546002200210026078C93
:104820004EF6FF7C07EA0C070784828B018C4FF65B
:10483000FF7707EA043640F6FF473A404FF6FF7726
:1048400007EA05273A434FF6FF7707EA03373A436B
:10485000D94FB8420ED0D94FB8420BD0B0F1804FEB
:1048600008D0D74FB84205D0D64FB84202D0D64F65
:10487000B84206D14DF6FF77394046F480573943A8
:1048800005E047F6FF57394044F4805739438283A7
:104890000184F0BD828B4FF6F3731A408283828BC2
:1048A0000A4382837047F0B50C461546002200216A
:1048B0000026078C4FF6FF6C07EA0C070784828BF3
:1048C000018C4FF6FF7707EA04264FF60C773A4043
:1048D0004FF6FF7707EA03172F433A43B64FB84224
:1048E0000ED0B64FB8420BD0B0F1804F08D0B44FC5
:1048F000B84205D0B34FB84202D0B34FB84206D148
:104900004FF6FF57394046F48077394305E04FF2C0
:10491000FF57394044F48077394382830184F0BDE6
:10492000028B4FF2FF331A400283028B4FF6FF7364
:1049300003EA01231A4302837047F0B50C4615467B
:10494000002200210026078C4FF6EF7C07EA0C07B7
:104950000784028B018C4FF6FF7707EA041640F6B6
:10496000FF473A404FF6FF7707EA03373A434FF6DF
:10497000FF7707EA05273A438F4FB8420ED08F4F93
:10498000B8420BD0B0F1804F08D08D4FB84205D05F
:104990008C4FB84202D08C4FB84206D14FF6DF7729
:1049A000394046F01007394305E04FF65F7739404C
:1049B00044F01007394302830184F0BD028B4FF6A7
:1049C000F3731A400283028B0A4302837047F0B5E7
:1049D0000C46154600220021068C4FF6FE773E401D
:1049E0000684028B018C4FF60C7632407E1C06EA60
:1049F00003162E433243704EB0420ED06F4EB0427B
:104A00000BD0B0F1804F08D06D4EB04205D06D4E46
:104A1000B04202D06C4EB04206D14FF6FD76314026
:104A200044F00106314305E04FF6F576314044F09D
:104A30000106314302830184F0BD70B505460C4682
:104A40005D4885420ED05D4885420BD0B5F1804F60
:104A500008D05B48854205D05A48854202D05A4862
:104A6000854200D100E000BF208850B92389A28888
:104A700061882846FFF7ABFFE1882846FFF79EFFD5
:104A800025E0208804280AD12389A2886188284645
:104A9000FFF753FFE1882846FFF742FF17E0208821
:104AA00008280AD12389A28861882846FFF7FBFEDF
:104AB000E1882846FFF7EEFE09E02389A288618895
:104AC0002846FFF7A6FEE1882846FFF795FE70BD51
:104AD0002DE9F04105460C4600260127608808B9FB
:104AE000022600E00026A088012801D1022700E06C
:104AF00001272088A0B92389A28861882846FFF76A
:104B000066FFE1882846FFF759FF23893A46314678
:104B10002846FFF712FFE1882846FFF701FF13E060
:104B20002389A28861882846FFF707FFE188284685
:104B3000FFF7F6FE23893A4631462846FFF747FF3E
:104B4000E1882846FFF73AFFBDE8F0810A884B88E4
:104B50001A438B881A43CB881A430B891A434B8913
:104B60001A438B891A43A0F8442070474FF6FF710F
:104B7000818000210180C180418001727047002145
:104B8000018041808180C180018141818181C18119
:104B90007047002101804180012181800021C18076
:104BA000018170470021018041808180C1800181A5
:104BB0004181818170470000002C01400034014098
:104BC0000004004000080040000C004021B10288B1
:104BD00042F00102028004E002884FF6FE731A40A0
:104BE0000280704731B1B0F8442042F40042A0F88E
:104BF000442005E0B0F84420C2F30E02A0F844209F
:104C000070471AB183890B43838102E083898B4308
:104C1000838170478182704741EA0203A0F84830DF
:104C200070471AB183890B43838102E083898B43E8
:104C30008381704701894FF6F872114001817047F6
:104C40000A46002101894FF68F73194011430181F3
:104C5000704730B504460D4629462046FFF7F0FF61
:104C6000208940F00700208130BD2DE9F041044645
:104C70000D4616461F46602D06D13B4601223146A1
:104C80002046FFF75AFE05E03B460122314620460A
:104C9000FFF79DFE29462046FFF7D2FF208940F00E
:104CA00007002081BDE8F08130B50C460021018964
:104CB000C9B24FF6FF7505EA03251543254329437D
:104CC000018130BD2DE9F04105460E461746984654
:104CD000002443463A4631462846FFF7E5FF2C8933
:104CE0004FF6F870044044F007044FF68F7004400C
:104CF00044F070042C81BDE8F081F0B504460D4607
:104D000016461F463B46324629462046FFF7CCFF53
:104D1000208940F480402081F0BD01858282704767
:104D20000A46002101884FF68F7319401143018014
:104D30007047F0B50C4615461E46002100220023A0
:104D40000189028B038C4FF6F877394021434FF6E7
:104D5000FC473A4040F201173A434FF6DD773B40BB
:104D60004FF6FF7707EA06172F433B430181028383
:104D70000384F0BD0A460021018B4FF68F73194062
:104D80001143018370470A460021018B48F6FF73E7
:104D900019404FF6FF7303EA02231943018370475A
:104DA0000A460021818B4FF68F731940114381838E
:104DB00070470A460021818B48F6FF7319404FF671
:104DC000FF7303EA022319438183704721B10288EC
:104DD00042F08002028004E002884FF67F731A409E
:104DE0000280704721B1828842F00402828004E090
:104DF00082884FF6FB731A408280704721B1828807
:104E000042F00802828004E082884FF6F7731A406D
:104E10008280704721B1828842F00102828004E0E2
:104E200082884FF6FE731A40828070470A4600213E
:104E3000018B4FF6F77319401143018370470A46FF
:104E40000021018B4FF2FF7319404FF6FF7303EA05
:104E500002231943018370470A460021818B4FF6D4
:104E6000F77319401143818370470A460021818BF3
:104E70004FF2FF7319404FF6FF7303EA0223194301
:104E8000818370470A460021018B4FF6FB7319405E
:104E90001143018370470A460021018B4FF6FF330F
:104EA00019404FF6FF7303EA022319430183704749
:104EB0000A460021818B4FF6FB7319401143818311
:104EC00070470A460021818B4FF6FF3319404FF699
:104ED000FF7303EA02231943818370470A460021C6
:104EE000018B4FF67F7319401143018370470A46C7
:104EF0000021018BC1F30E014FF6FF7303EA022379
:104F00001943018370470A460021818B4FF67F7356
:104F100019401143818370470A460021818BC1F3F8
:104F20000E014FF6FF7303EA022319438183704792
:104F30000A460021018C4FF6FD731940114301848C
:104F400070470A460021018C4FF6F7731940114350
:104F5000018470470A460021018C4FF6DF73194027
:104F60004FF6FF7303EA02131943018470470A46A0
:104F70000021018C4FF67F7319404FF6FF7303EA4F
:104F800002131943018470470A460021018C4FF631
:104F9000FF5319404FF6FF7303EA022319430184BC
:104FA00070470A460021018C4FF2FF7319404FF6FB
:104FB000FF7303EA02231943018470470A46002164
:104FC000018C4DF6FF7319404FF6FF7303EA02336D
:104FD00019430184704730B5002301248C40A3B2EB
:104FE000048C9C430484048C02FA01F5ADB22C437A
:104FF000048430BD30B5002304248C40A3B2048C5B
:105000009C430484048C02FA01F5ADB22C43048461
:1050100030BD70B503460020002418461830012525
:105020008D40ACB21D8CA5431D8409B1082909D15E
:1050300000EB6100056825F0700505600568154303
:1050400005600EE00D1FC5F34E052844056825F4E4
:10505000E045056005684FF6FF7606EA022635430F
:10506000056070BD21B1028842F00202028004E0B6
:1050700002884FF6FD731A400280704721B1028802
:1050800042F00402028004E002884FF6FB731A40EB
:105090000280704721B1828842F08002828004E061
:1050A00082884FF67F731A408280704702884FF6DD
:1050B000F7731A40028002880A4302807047828890
:1050C0004FF68F731A40828082880A43828070472D
:1050D00002894FF6F8731A40028102890A4302815D
:1050E000704702894FF67F731A40028102890A4392
:1050F000028170478184704781857047818670473F
:105100000187704781877047A0F840107047028878
:105110004FF6FF431A40028002880A43028070471C
:105120000146888E70470146088F70470146888F78
:1051300070470146B1F8400070470146888C7047BF
:105140000146088D704702460020138A0B400BB1C0
:10515000012000E000207047CA430282704730B54A
:105160000246002000230024158A05EA01039589E0
:1051700005EA010413B10CB1012000E0002030BDAC
:10518000CA4302827047000010B50446FB488442BF
:1051900009D101218803FFF79FF800214FF48040D7
:1051A000FFF79AF832E0F648844209D10121480419
:1051B000FFF79FF800214FF40030FFF79AF825E041
:1051C000F048844209D101218804FFF792F80021B8
:1051D0004FF48020FFF78DF818E0EB48844209D1A6
:1051E0000121C804FFF785F800214FF40020FFF7E4
:1051F00080F80BE0E548844208D101210805FFF75B
:1052000078F800214FF48010FFF773F810BD2DE9F6
:10521000F04786B005460E460024A24600BFA146D0
:105220000027B08900B100BF2F462C8A4CF6FF70D2
:105230000440F08804432C82AC894EF6F3100440FD
:10524000B08831890843718908430443AC81AC8A32
:105250004FF6FF400440B0890443AC8201A8FEF73A
:10526000B4FFC648874202D1DDF810A001E0DDF8A6
:105270000CA0A88900F4004040B10AEBCA0000EB82
:105280000A1031684900B0FBF1F807E00AEBCA00E8
:1052900000EB0A1031688900B0FBF1F86420B8FB1C
:1052A000F0F004012009642101FB1089A88900F4B1
:1052B000004040B1322000EBC900B0FBF1F000F03B
:1052C0000700044308E0322000EB09106421B0FB22
:1052D000F1F000F00F0004432C8106B0BDE8F08728
:1052E0004FF41651016000218180C18001810C21A1
:1052F000418100218181704710B502460020108A4B
:105300004FF2FF0318400B884C8823438C882343BB
:10531000CC8823431843108210BD002101804180B6
:105320008180C180704721B1828942F4005282811C
:1053300004E082894DF6FF731A4082817047F0B510
:105340000346002400260025002040F66A17B942D3
:1053500000D100BF1846C1F3421401F01F06012717
:1053600007FA06F5012C01D10C3004E0022C01D122
:10537000103000E014301AB107682F43076002E0D4
:105380000768AF430760F0BD1AB1838A0B4383827D
:1053900002E0838A8B4383827047028A4FF6F07360
:1053A0001A400282028A0A430282704782894FF2BF
:1053B000FF731A40828182890A438281704721B13A
:1053C000828942F00202828104E082894FF6FD73F5
:1053D0001A4082817047028A4FF6DF731A400282B8
:1053E000028A0A430282704721B1028A42F4804253
:1053F000028204E0028A4BF6FF731A400282704771
:10540000C1F308028280704701468888C0F3080013
:105410007047818941F0010181817047028BD2B2CE
:105420000283028B42EA012202837047028B02F45C
:105430007F420283028B0A430283704721B1828A32
:1054400042F02002828204E0828A4FF6DF731A4023
:105450008282704721B1828A42F01002828204E087
:10546000828A4FF6EF731A408282704721B1828A96
:1054700042F00802828204E0828A4FF6F7731A40F3
:105480008282704721B1828942F40042828103E026
:105490008289C2F30E028281704721B1828A42F46E
:1054A0000062828204E0828A4FF2FF731A40828295
:1054B0007047828A4FF6FB731A408282828A0A43BF
:1054C0008282704721B1828A42F00202828204E025
:1054D000828A4FF6FD731A4082827047024600208E
:1054E000B1F5007F00D100BF13880B400BB1012044
:1054F00000E00020704701F40072B2F5007F00D197
:1055000000BFCA430280704770B5024600240023E2
:105510000025002040F66A16B14200D100BFC1F359
:10552000421501F01F03012606FA03F3012D02D1F3
:105530009689334006E0022D02D1168A334001E0FD
:10554000968A33400C12012606FA04F41688344079
:1055500013B10CB1012000E0002070BD10B5002295
:10556000002340F66A14A14200D100BF0A120124B0
:105570009440A3B2DC43048010BD00000038014019
:105580000044004000480040004C004000500040F3
:10559000002044490860091D0860091D0860091DB4
:1055A000086041483F4914310860704700213D4977
:1055B0008279002A3AD00A46126803689A430B4659
:1055C0001A600A1D126803689A430B1D1A6002795B
:1055D00011440A6803681A430A60324A08321268A2
:1055E00003689A432F4B08331A601A1D1268036828
:1055F0009A432C4B0C331A604279102A0ED11A1F91
:10560000126803681A43274B08331A601A1D126880
:1056100003681A43234B0C331A600DE02149427989
:1056200011440A6803681A430A6005E002791144CC
:105630000A6803689A430A6070470021016001719B
:105640000C214171002181717047164910310968A0
:105650000143144A10321160704701460020114A7C
:10566000143212680A400AB1012000E0002070479D
:105670000C49143108607047014600200022094B94
:105680001B6803EA0102074B14331B680B4013B17C
:105690000AB1012000E0002070470249143108607F
:1056A0007047000000040140FFFF0F00704700003A
:1056B0000FB4044910B503AA029800F0FBF810BC1F
:1056C0005DF814FBE80000202DE9F04106460024B7
:1056D00010687529314616A510D0AFF30080002858
:1056E00002DA404213A507E031688A0701D512A506
:1056F00002E0490704D511A5012401E0AFF30080C1
:1057000000210A2206F1240709E0B0FBF2FCB0FBFD
:10571000F2F302FB1C00303078541846491C002874
:10572000F3D123462A463046BDE8F04100F068B880
:10573000000000002D0000002B00000020000000F1
:105740002DE9F0410F460546002028622846E96809
:10575000884770B3252805D0D5E901219047286AEC
:10576000401CF2E7E9682846002688476C28044672
:105770000AD0682C08D04C2C35D06A2C31D0742C2F
:1057800031D07A2C2FD016E0E968064628468847A3
:10579000B042044608D16C2E23D04FF480662846D0
:1057A000E9688847044606E06C2E03D04FF4807603
:1057B00001E01EE04026E4B1A4F14100192802D81E
:1057C000203446F400663A46214628462E60FAF711
:1057D000E9FC60B1012808D0FF1D27F00707083752
:1057E000B4E78026DBE70026D9E73F1DAEE7204679
:1057F000B2E7286ABDE8F08170477047704770478C
:105800002DE9F0470D4699469246044600F12408DA
:105810000168880604D5E06921F01001216000E0EC
:105820000120A84201DD471B00E00027A1697A1989
:1058300002EB0900081AA0612078C00602D42046B5
:10584000AFF30080002608E0D4E901211AF8060031
:105850009047206A401C761C20624E45F4DB20787D
:10586000C0060AD52046AFF3008006E0D4E9012146
:1058700030209047206A401C2062381EA7F10107A3
:10588000F4DC07E0D4E9012118F805009047206A0C
:10589000401C2062281EA5F10105F3DC2046AFF371
:1058A00000802078000602D50220BDE8F0870120A4
:1058B000FBE70000074B70B50D467B4400F011F884
:1058C0000446284600F020F810B14FF0FF3070BDBC
:1058D000204670BDFDE0FFFF01694A1C02610878A7
:1058E000704700B58FB0CDE9013100210591054920
:1058F0007944CDE9031011466846FFF721FF0FB048
:1059000000BD0000E5FFFFFF007B00F08000704756
:10591000754600F02BF8AE4605006946534620F068
:105920000700854618B020B5FEF720F9BDE82040F5
:105930004FF000064FF000074FF000084FF0000B4B
:1059400021F00701AC46ACE8C009ACE8C009ACE8FE
:10595000C009ACE8C0098D46704710B50446AFF3E6
:1059600000802046BDE81040FAF72EBC0048704782
:10597000500100200D0A54686520667265717565D6
:105980006E6379206973206F7574206F6620726171
:105990006E67652120706C65617365207265736543
:1059A0007420697421212872616E67653A3230482B
:1059B0007A7E3130304B487A290D0A00DC590008D4
:1059C00000000020040100006C010008E05A0008FB
:1059D00004010020AC0600008801000800A24A046F
:1059E000000000000000000001020304060708098F
:1059F0000000000000000000000000006400000043
:105A0000800C0000D0070000681000008813000020
:105A1000DC05000098080000D80E00008813000084
:105A200070170000F401000098080000F811000051
:105A3000881300007017000060090000B80B000018
:105A4000F81100008813000070170000F401000036
:105A5000B80B0000740E00003C0F0000E8030000CB
:105A60009411000088130000041A0000E8030000ED
:105A700064000000C4090000AC0D000050140000D8
:105A800008070000AC0D0000A00F0000041A000081
:105A900000000000000000000001000064000000A1
:105AA00064000000640000006400000000010000C9
:105AB00000000000000000000000000001000000E5
:105AC00000000000000000000000000000000000D6
:105AD0000102030401020304060708090204060880
