:020000040800F2
:10000000880600202D020008310200083302000893
:10001000350200083702000839020008000000001D
:100020000000000000000000000000003B0200088B
:100030003D020008000000003F02000841020008E5
:10004000430200084302000843020008430200087C
:10005000430200084302000843020008430200086C
:10006000430200084302000843020008430200085C
:10007000430200084302000843020008430200084C
:10008000430200084302000843020008430200083C
:10009000430200084302000843020008430200082C
:1000A000430200084302000843020008430200081C
:1000B0004302000843020008CD0C00084302000878
:1000C00043020008430200084302000843020008FC
:1000D000430200088D0F0008430200084302000895
:1000E00043020008430200084302000843020008DC
:1000F000210E0008430200084302000843020008E2
:1001000043020008430200084302000843020008BB
:1001100043020008430200084302000843020008AB
:10012000430200084302000843020008430200089B
:1001300000F002F800F06BF80AA090E8000C82448E
:100140008344AAF10107DA4501D100F060F8AFF26B
:10015000090EBAE80F0013F0010F18BFFB1A43F0A5
:10016000010318471C2900003C2900000A444FF0F5
:10017000000C10F8013B13F0070408BF10F8014B06
:100180001D1108BF10F8015B641E05D010F8016B4B
:10019000641E01F8016BF9D113F0080F1EBF10F8AF
:1001A000014BAD1C0C1B09D16D1E58BF01F801CBD2
:1001B000FAD505E014F8016B01F8016B6D1EF9D555
:1001C0009142D6D37047000000230024002500266A
:1001D000103A28BF78C1FBD8520728BF30C148BFAA
:1001E0000B607047642900F09980752900F09680B3
:1001F000782900F0CF80632900F02382732900F072
:100200002882002070471FB51FBD10B510BD00F03B
:1002100053FA1146FFF7F7FF00F06EFF00F071FA96
:1002200003B4FFF7F2FF03BC00F0F9FE08480047F3
:10023000FEE7FEE7FEE7FEE7FEE7FEE7FEE7FEE796
:10024000FEE7FEE703480449024A044B70470000FA
:100250003101000888020020880600208802002062
:10026000704700000FB4044910B503AA029800F0CB
:10027000F5F910BC5DF814FB0400002070B50446CD
:1002800085690068C10601D5302600E02026C00738
:1002900007D070BDD4E9012130469047206A401C48
:1002A00020626D1EF6D570BD70B504468569007874
:1002B000C00707D170BDD4E9012120209047206AF2
:1002C000401C20626D1EF6D570BD70B50C4605460B
:1002D000012A05D02878800600D5EA69002302E0CB
:1002E000012305E05B1C934202D2E05C0028F9D1B7
:1002F000A869E618C01AA861286A18442862284626
:10030000FFF7BCFF04E0D5E9012114F8010B904789
:10031000B442F8D32846FFF7C7FF70BD2DE9F0417E
:100320000646002410687529314616A510D0AFF393
:100330000080002802DA404213A507E031688A07EE
:1003400001D512A502E0490704D511A5012401E059
:10035000AFF3008000210A2206F1240709E0B0FB78
:10036000F2FCB0FBF2F302FB1C003030785418466C
:10037000491C0028F3D123462A463046BDE8F04107
:1003800000F0FCB8000000002D0000002B00000071
:100390002000000070B504460D4621461068AFF3FA
:1003A00000802188090502D50F4A7A4402E00E4AEE
:1003B0007A440E32002104F1240305E000F00F0618
:1003C0000009965D5E54491C0028F7D1207800236F
:1003D000000704D5702D02D009B102231132204646
:1003E000BDE8704000F0CAB85C2500002DE9F05F60
:1003F000894604464FF0000ADFF874B1FB44C0F8A8
:1004000020A02046E1688847002874D0252806D01F
:10041000D4E901219047206A401C2062F1E70026C0
:100420005F462046E16888472028054607DB312DD6
:1004300005D2781910F8200C08B10643F1E7B0078F
:1004400001D526F00406C4F81CA00027C4F818A0A3
:100450002A2D09D0284600F0DBFD38B304EB8708CD
:10046000303DC8F8185019E059F8041B204604EB39
:1004700087029161E1688847012F054618D1E0693C
:10048000002820DA26F020061DE0D8F8180000EB3E
:10049000800005EB40003038C8F818002046E168BD
:1004A0008847054600F0B4FD0028EED1012F0AD0A0
:1004B0002E2D08D12046E16888477F1C0546022F73
:1004C00046F02006C4DBA069002803DA404246F06B
:1004D0000106A061F00701D026F010066C2D0BD0AC
:1004E000682D09D04C2D39D06A2D35D0742D35D0DA
:1004F0007A2D33D016E038E0E1682F462046884751
:10050000B842054609D16C2F26D04FF48060E168CF
:10051000064320468847054604E06C2F1AD04FF466
:10052000807006430DB3A5F14100192802D820358B
:1005300046F400664A462946204626604E46FFF7A6
:1005400051FE80B101280BD0F61D26F0070000F106
:10055000080956E74020E4E78020D8E70020D6E7E6
:1005600006F104094DE7284652E7206ABDE8F09FEE
:100570003225000070477047704770472DE9F047FB
:100580000D4699469246044600F124080168880603
:1005900004D5E06921F01001216000E00120A842AB
:1005A00001DD471B00E00027A1697A1902EB090071
:1005B000081AA0612078C00602D42046FFF75EFE2C
:1005C000002608E0D4E901211AF806009047206AC5
:1005D000401C761C20624E45F4DB2078C0060AD50C
:1005E0002046FFF74BFE06E0D4E90121302090477A
:1005F000206A401C2062381EA7F10107F4DC07E0E6
:10060000D4E9012118F805009047206A401C2062B7
:10061000281EA5F10105F3DC2046FFF745FE2078F2
:10062000000602D50220BDE8F0870120FBE710B5E7
:10063000436913B1AFF3008001E0FFF746FE0120EC
:1006400010BD127800F124010A7000224A700122C4
:10065000EDE711684FF0FF32E9E70000074B70B596
:100660000D467B4400F011F80446284600F020F8BF
:1006700010B14FF0FF3070BD204670BD770A00000A
:1006800001694A1C02610878704700B58FB0CDE956
:1006900001310021059105497944CDE90310114646
:1006A0006846FFF7A3FE0FB000BD0000E5FFFFFFA7
:1006B000007B00F080007047754600F02BF8AE46D6
:1006C00005006946534620F00700854618B020B55E
:1006D000FFF7B8FDBDE820404FF000064FF00007DF
:1006E0004FF000084FF0000B21F00701AC46ACE8DA
:1006F000C009ACE8C009ACE8C009ACE8C0098D4647
:10070000704710B50446AFF300802046BDE81040A6
:10071000FFF786BD00487047280200200D48806919
:1007200040F010000B4988610B48006840F60F71DB
:100730008843094908600846006840F203310843CD
:100740000549086001200549086000200449C1F8F6
:1007500088017047001002400010014080012242D1
:10076000000022421548806940F004001349886166
:100770000846806940F0400088611148006820F018
:100780000F000F4908600846006840F00800086044
:100790000C4800680C4908400A490860084600688F
:1007A0000A4908430749086006480C30006840F0D1
:1007B0001C0004490C310860704700000010024022
:1007C0000008014000180140FF00F0FF0088080009
:1007D00010B5044614B1012023490870224800785E
:1007E00058B32248006858B12048001F006838B14B
:1007F0001E480838006818B11D48006801281CD13F
:100800000A2000F02FFC00201749087017480068E4
:1008100008B9012010BD1548001F006808B9022062
:10082000F8E712480838006808B90320F2E71048D2
:100830000068012815D10420ECE70C480068012865
:100840000FD10A48001F006801280AD1074808385C
:100850000068012805D10648006810B90120024946
:1008600008700020D6E700001D0000201001234280
:10087000000121421848806940F00800164988614B
:100880000846806940F0400088611448006820F400
:100890007000124908600846006840F44010086083
:1008A0000E480C30006840F020000C490C31086004
:1008B0000B48006820F47000094908600846006889
:1008C00040F44010086006480C30006840F02000FA
:1008D00003490C310860704700100240000C0140D1
:1008E0000018014070B505460C462B48008800F002
:1008F000010018B129A0FFF7B5FC70BD142C02D37C
:100900003548844203D93548FFF7ACFCF5E7344855
:10091000056000683349096888423AD03048006869
:1009200030490968884203DD01202F49087002E040
:1009300000202D4908702C4800782C490860284A6E
:100940001268284B1B68D11A002901DB0A4600E017
:100950004A421046D21700EB12621212244B1A6060
:100960001F4A12681F4B1B68D11A002901DB0A4677
:1009700000E04A421046D21700EB12621212A0EBBE
:1009800002221C4B1A7000201B490870204600F000
:1009900029FA00BFB1E70000003401400D0A546895
:1009A00065206C6173742074696D652070756C735B
:1009B0006573206973206E6F742073656E642066A2
:1009C000696E69736865642C7761697420706C6501
:1009D000617365210D0A0000A0860100442900080A
:1009E00014000020180000201C000020800122427A
:1009F000100000200C0000200D00002070B50446FF
:100A00000D461646002C03DC21A0FFF72BFC70BD21
:100A10002A48008800F0010018B129A0FFF722FC45
:100A2000F5E7142D02D33548854203D93448FFF742
:100A300019FCECE733480670007833490860314808
:100A40000078012805D13148006820443049086009
:100A500007E02C48007820B92C480068001B2C497E
:100A600008602046E11704EB11610912294A116060
:100A7000E11704EB11610912A4EB0121264A117060
:100A8000002026490870284600F0ACF900BFBEE7F8
:100A90000D0A546865206E756D2073686F756C64FF
:100AA0002062652067726561746572207468616E8A
:100AB000207A65726F21210D0A0000000034014088
:100AC0000D0A546865206C6173742074696D65202B
:100AD00070756C736573206973206E6F7420736515
:100AE0006E642066696E69736865642C77616974E9
:100AF00020706C65617365210D0A0000A0860100FD
:100B0000442900081C000020800122421800002017
:100B100014000020100000200C0000200D00002018
:100B200000B5002015490861C86014204861002004
:100B30008861C8610846006840F001000860084606
:100B400040680F4908400D494860084600680D4953
:100B500008400A4908600846006820F480200860C0
:100B60000846406820F4FE004860002088600021AC
:100B70004FF0006000F058F800BD00000010024087
:100B80000000FFF8FFFFF6FE2DE9F041074688461A
:100B900014461D46284600F033F8C5F1040007FA54
:100BA00000F60F20284100EA0800064306F00F0671
:100BB000E21704EBD2625211920002F1E022D2F865
:100BC00000212146E31704EBD3635B11A4EB431C24
:100BD000012303FA0CF31A432046E31704EBD36313
:100BE0005B119B0003F1E023C3F800210348005D83
:100BF00040EA061001490855BDE8F08100E400E034
:100C00000146072323EA01021202054B18684FF63A
:100C1000FF031840034B18431043014B1860704703
:100C20000CED00E00000FA05024A0A400243024BC4
:100C30001A60704780FFFF1F08ED00E030B50446E2
:100C40000025FFF76DFF1F48006840F480301D4904
:100C5000086000BF1B480068400C0028FAD04FF421
:100C6000806018494860A01EC4B20846406840EA47
:100C7000844048600846406840F48030486012482C
:100C8000006840F03200104908600E48006840F0EB
:100C900080700C49086000BF0A480068400E0028B8
:100CA000FAD00848406840F002000649486005E074
:100CB00004484068C0F3870505F00305022DF7D10D
:100CC00030BD0000001002400020024010B50C486A
:100CD000008800F0010058B10A49086980470020E7
:100CE0000749143108804FF47A7005491C31088097
:100CF0000348008820F001000149088010BD000071
:100D0000100800406C00002070B505460C463248C3
:100D1000806940F40050304988610846806940F09D
:100D2000100088612D48006820F070402B49086051
:100D30000846006840F03040086029480580001FE0
:100D40000480001D0088401025490C31088024488B
:100D50002C38008840F0040021492C3908800846CE
:100D6000008840F0080008801D481438008840F4CE
:100D7000E0401B49143908800846008840F40060B0
:100D8000088017480C38008840F0100014490C39CE
:100D9000088013482C38008840F0800010492C3916
:100DA00008800F482038008840F001000C492039A5
:100DB000088002232C2201210846FFF7E5FE0020CF
:100DC00007491C39088006482C38008840F001008B
:100DD00003492C39088070BD00100240001001400A
:100DE0002C3401400C49B1FBF0F1491E0B4A118033
:100DF000114609884910094A0C3211800021074A1E
:100E0000083A118005492C39098841F00101034A4B
:100E10002C3A11807047000040420F002C340140F2
:100E200010B53C48008800F00100002870D0394817
:100E3000008820F0010037490880374800780028F2
:100E40004DD13648006848B1FF2032492031088032
:100E500032480068401E3149086010E03048007890
:100E600060B12F480078401E2A49203108800020B8
:100E70002B49087001202849087000E030E025481F
:100E8000001D008840F001002249091D088021480A
:100E90003430008840F400401E49343108801D4839
:100EA0001038008840F001001A49103908801D48A8
:100EB0000078012809D1174820300088401C1A49C1
:100EC000096808441849086022E012482030008868
:100ED000401C15490968081A1349086018E000BF4A
:100EE00001200D4908700B483430008820F4004080
:100EF00008493431088007481038008820F0010084
:100F00000449103908800848016808A0FFF7AAF9C9
:100F100010BD0000103401400D0000201000002022
:100F20000C0000201C00002018000020B5B1C7B044
:100F3000CEBBD6C33D256C640D0A000070B50546D6
:100F40000C461048C06940F004000E49C8610E48C4
:100F50000580001F04800C482038008840F0010004
:100F600009492039088008482C38008840F00100E1
:100F700005492C39088002231E2203210846FFF769
:100F800003FE70BD001002402C0800401D49098876
:100F900001F0200111B31B49091D0988C8B21A4983
:100FA000098801F40041C9B91749098801F4804151
:100FB00061B10A2803D00021134A118020E01249B0
:100FC000098841F40041104A118019E00D2806D12A
:100FD0000D49098841F480410B4A118010E00A490B
:100FE0000988C1F30D01094A505407490988491C71
:100FF000054A118011460988C72901DD00211180A9
:101000007047000000380140080000206001002007
:1010100030380A2801D2012070470020704701466D
:1010200000BF70474FF0E021096921F004014FF043
:10103000E0221161C21700EB5272C2F3C702074BE4
:101040001A701946097801EB4102C2EBC1114FF643
:10105000FF7202EAC101024A1180704700000020BD
:101060000200002001460D4A12884A434FF0E02357
:101070005A6100229A6101221A6100BF4FF0E022FA
:10108000106900F001021AB100F48032002AF5D094
:1010900000224FF0E0231A619A617047020000209D
:1010A00001460D4A12784A434FF0E0235A6100226C
:1010B0009A6101221A6100BF4FF0E022106900F02E
:1010C00001021AB100F48032002AF5D000224FF05C
:1010D000E0231A619A6170470000002000BF054AB2
:1010E000128802F04002002AF9D0C2B2014B1B1D47
:1010F0001A807047003801400920FFF79FFD4FF428
:10110000E131482000F04AF84820FFF78BFF1F48E4
:10111000416848208847FFF7ADFBFFF723FBFFF747
:10112000FDFA472140F2E730FFF7EEFD2DE0002009
:10113000FFF74EFB0446042C05D14FF4FA71002052
:10114000FFF7D0FB11E0012C06D101224FF4FA7118
:10115000C820FFF753FC08E0022C06D100224FF410
:10116000FA714FF4C870FFF749FC0A20FFF77AFFC5
:10117000681CC5B2322D08D100250548006808B9A1
:10118000012000E0002002490860D0E76C00002048
:101190009401234201460868704700002DE9F05F82
:1011A00005460E46300101F051FA81462E4905FBF5
:1011B00001F001F04BFA8246494601F065F9074615
:1011C000384601F023FA84B2204601F03FFA834604
:1011D000394601F01BFB82464FF0834101F04AFA89
:1011E000814601F013FA80464FF6FF7000EA0414BE
:1011F00004EB080084B21D48806940F004001B49DC
:1012000088610846806940F4804088611848006819
:1012100020F47F60164908600846006840F40B60BF
:1012200008601248C06840F480401049C860084611
:10123000C06820F48040C8600E480480001D00880B
:1012400042F20C0108430B49091D0880084600883A
:1012500040F0200008800223252203210846FFF7E2
:1012600093FCBDE8F09F000040420F0000100240D8
:10127000040801400838014030B595B0054613AB6D
:1012800012AA09A9284600F03FFA044614B12046E4
:1012900015B030BD0020149026E0224909689DF861
:1012A000502001EBC20113AB11AA486801A900F05C
:1012B0002BFA04460CB12046EAE709A901A800F080
:1012C000DDFC60B99DF844009DF84810884201DDBE
:1012D0000220DDE79DF85000124988750AE09DF86C
:1012E0005000401CC0B214900E48007D9DF8501074
:1012F0008842D2DC00BF0B48007D9DF85010884228
:1013000001D10420C4E714A9284600F0DDFA044600
:101310000CB12046BCE79DF85000024948750020FA
:10132000B6E700006C0000202DE9F0419AB09C481F
:10133000847D007DA04202DC1AB0BDE8F0819849AE
:10134000096801EBC40106AB07AA486808A900F0C8
:10135000DBF908A993A0FEF785FF002644E090483A
:10136000008B0121B1400840D8B122218FA0FEF7A7
:1013700079FF304600F02EFB894924314718394661
:101380008BA0FEF76FFF222188A0FEF76BFF30468F
:1013900000F020FB82492431084410A941F82600BE
:1013A00018E0304600F016FB7D492431085810A99A
:1013B00041F826007A48C07D30B910A850F82610B0
:1013C0007CA0FEF74FFF05E010A850F826107AA089
:1013D000FEF748FF9DF81C00401EB04202D078A0E6
:1013E000FEF740FF701CC6B29DF81C008642B6DBBB
:1013F00074A0FEF737FF00F03DFB6948407D0B28E5
:101400000DD2DFE800F0060D151E27323F4E5F7249
:1014100087006349096851F834008047054690E029
:101420005F4A126852F8341010988847054688E0E1
:101430005B4B1B6853F83420DDE9100190470546EB
:101440007FE0574F3F6857F8343010A807C89847D7
:10145000054676E0DFF848C1DCF800C05CF834707F
:1014600010A80FC8B84705466BE01498DFF830C1E4
:101470000090DCF800C05CF8347010A80FC8B847C2
:1014800005465EE0DDE91401DFF814C1CDE9000195
:10149000DCF800C05CF8347010A80FC8B8470546E7
:1014A0004FE0DDE914121698DFF8F4C0CDE9001220
:1014B0000290DCF800C05CF8347010A80FC8B84780
:1014C00005463EE0DDE91423DDE91610DFF8D0C063
:1014D000CDE90023CDE90210DCF800C05CF83470DF
:1014E00010A80FC8B84705462BE0DDE91523DDE954
:1014F0001710CDE90123CDE903101498DFF8A0C03F
:101500000090DCF800C05CF8347010A80FC8B84731
:10151000054616E0DDE91623DDE91810CDE90223C2
:10152000CDE90410DDE91401DFF874C0CDE9000154
:10153000DCF800C05CF8347010A80FC8B847054646
:1015400000BF00BF00F056FA9DF8180001280CD12A
:101550001348C07D20B929461BA0FEF783FE07E093
:1015600029461BA0FEF77EFE02E018A0FEF77AFED9
:101570000B4890F8EC0088B10948D0F8F0000A2137
:10158000B0FBF1F201FB12070548D0F8F000B0FB08
:10159000F1F83A46414611A0FEF764FE00BFCBE6E3
:1015A0006C0000200D0A2573280000002563000050
:1015B00025730000256C6400305825580000000099
:1015C0002C000000290000003D256C753B0D0A0031
:1015D0003D305825583B0D0A0000000046756E63EB
:1015E00074696F6E2052756E2054696D653A25647A
:1015F0002E2531646D730D0A00000000F0B503461E
:10160000154600200022002600245BE01F782C2FC6
:1016100001D104B901221F78292F01D01F780FB9F9
:1016200004B950E0002E3AD11F78302F02DB1F782A
:10163000392F17DD1F782D2F14D01F782B2F11D0A5
:101640001F78612F02DB1F78662F0BDD1F78412F7B
:1016500002DB1F78462F05DD1F78582F02D01F7838
:10166000782F0CD102B12EE01F78612F03DB1F7899
:10167000203F0F7001E01F780F70491C1FE01F789A
:10168000222F04D102B11EE00126012417E01F78A9
:10169000202F14D01F782C2F11D0FF2613E01F7895
:1016A000222F00D1002402B10DE044B11F785C2F3D
:1016B00002D15B1C471CF8B21F780F70491C471CF5
:1016C000F8B25B1CA2E700BF00270F702E70F0BDC0
:1016D00010B50446002010700BE020780870641CE0
:1016E000491C1078401C10701078984201DB0120D2
:1016F00010BD2078202802D020780028EDD10020CD
:10170000087000BFF4E700002DE9FF4F85B0804668
:1017100089460027002004900390012002904FF09A
:10172000000B002544461DE02078202816D005F047
:101730007F00052812DA0DB945F0800505F07F001D
:10174000042803D120782A2800D00EE0207805F064
:101750007F010DF80100681CC5B202E0852D00D1A3
:1017600003E0641C20780028DED100BF8DB100208A
:1017700005F07F010DF8010051A1684600F07EFAE6
:1017800018B900210898017002E001210898017041
:1017900000254FF0000A444614E0641C0AF10100E1
:1017A00000F0FF0A2078202802D020782A2809D1CA
:1017B000204600F0D5F90646282E03D02A2E01D067
:1017C000CDF810A02078282802D020780028E4D175
:1017D0004446049810B10498401C04444FF0000A99
:1017E000002654E0207810B94FF0010A50E020782C
:1017F000282803D116B9781CC7B213E0207829280D
:1018000008D13EB917B1781EC7B201E04FF0010A06
:1018100047B93DE02078222804D10EB9012000E02C
:101820000020064647B9207820282FD0207889F854
:10183000000009F1010929E020782C2804D10120B9
:101840000290681CC5B214E02078202811D02078BE
:1018500028280ED04DB9BBF1050F06DA20780DF817
:101860000B000BF1010000F0FF0B0298401CC0B20E
:101870000290012F0AD10298022807D10298401C39
:10188000C0B202900398401CC0B20390641CA9E748
:1018900000BF0398012809D100200DF80B0008A112
:1018A000684600F0EBF908B9002003900799039807
:1018B0000870002089F80000504609B0BDE8F08F9C
:1018C000766F6964000000002DE9F043B5B005466D
:1018D0000F460024002604E000213D488155701C7D
:1018E000C6B20A2EF8DB06E06D1C287818B9012074
:1018F00035B0BDE8F08328782828F5D16D1C61E06B
:1019000034AA69462846FFF779FE064635449DF815
:10191000D00020B1012827D0FF284CD149E09DF804
:10192000000000B333A9684600F025F906460EB161
:101930000220DDE7204600F04DF825490A31339AB0
:101940000A50A1F12400008B0121A14088432049C5
:101950001A39088304211E480155601CC4B20A2CA0
:1019600001DD0320C4E726E0684600F0A3F9401C2F
:1019700000F0FF08204600F02DF815490A3100EB71
:1019800001094946684600F08AF911481A38018B66
:101990000120A040014388B20D491A3908830C4840
:1019A00000F80480601CC4B20A2C01DD03209FE70C
:1019B00001E002209CE700BF2878292801D0287880
:1019C00000B900E09CE700BF3C70002090E70000F9
:1019D0008600002002460020002105E0044B5B5CED
:1019E0000344D8B24B1CD9B29142F7DB70470000D8
:1019F000860000200D48008800F0010040B10C482E
:101A0000D0F8F0004FF6FF7108440949C1F8F00022
:101A10000748D0F8F0000549143109880844044902
:101A2000C1F8F0000846D0F8F000704710080040F8
:101A30006C00002010B5044604EBC40000EB041059
:101A40000122C2EB800081B24FF47A70FFF776FA80
:101A500001200149C87510BD6C00002010B5024678
:101A6000012000E050430B1EA1F10104E1B2F9D1C5
:101A700010BD00000948008820F0010007490880D7
:101A80004FF6FF7005491C310880002003491431CE
:101A900008800349C1F8F0007047000010080040BA
:101AA0006C00002070B51D48008800F4004000283C
:101AB00033D01A48057800201949485519488168DB
:101AC0001748884704461CB91649C868804721E072
:101AD000134800F0FBF80546012D00D02C46CCB190
:101AE000012C06D0022C08D0032C0AD0042C10D1D3
:101AF0000BE00DA0FEF7B6FB0BE00EA0FEF7B2FB6D
:101B000007E00FA0FEF7AEFB03E010A0FEF7AAFB74
:101B100000BF00BF00200149088070BD0800002000
:101B2000600100206C000020BAAFCAFDB4EDCEF316
:101B3000210D0A00B2CECAFDB4EDCEF3210D0A008C
:101B4000B2CECAFDCCABB6E0210D0A00CEB4D5D2E0
:101B5000B5BDC6A5C5E4B5C4BAAFCAFD210D0A001E
:101B60000146491C00E0491C0878202801D10029C1
:101B7000F9D1087870472DE9F04F05460F46002649
:101B80004FF00A09B3462C460020386034E0207834
:101B9000392802DC2078302811DA28782D2802D064
:101BA00028782B2800D156B12078462802DC2078EE
:101BB000412804DA2078582817D1012E15D1207831
:101BC000412801DB4FF0100928782D2803D14FF070
:101BD000020B6D1C0FE028782B2803D14FF0010B6E
:101BE0006D1C08E0701CC6B205E0207800B904E066
:101BF0000120BDE8F08F641CC9E700BF2C46B9F195
:101C0000100F0FD1032E01DA0220F2E720783028DE
:101C100006D16078582803D1A41CB01EC6B204E0D7
:101C20000320E6E70EB90420E3E71BE00EB1701EC7
:101C3000C6B22078392806DC2078302803DB2078EB
:101C4000A0F1300A02E02078A0F1370A3146484678
:101C5000FFF704FF39680AFB00103860641C207825
:101C600000B900E0E2E700BFBBF1020F04D1386821
:101C7000C0F10008C7F800800020BAE702460AE079
:101C800010780B78984201D001207047107800B985
:101C900002E0521C491CF3E700BF0020F5E706E014
:101CA00002780A70027802B902E0401C491CF7E78A
:101CB00000BF70470146002005E00A7802B903E042
:101CC000421CD0B2491CF8E700BF704710B58CB079
:101CD00004461E230BAA03A92046FFF7F9FC009037
:101CE000009810B101200CB010BD9DF82C000444E8
:101CF00000200B900EE040489DF82C2050F8221058
:101D000003A8FFF7BBFF00B908E09DF82C00401CBA
:101D1000C0B20B909DF82C000728ECD300BF9DF8B3
:101D20002C00072863D2DFE800F004053C5E656400
:101D3000630000BF31A0FEF795FA31A0FEF792FADA
:101D40003FA0FEF78FFA4EA0FEF78CFA5CA0FEF7DC
:101D500089FA6BA0FEF786FA79A0FEF783FA87A0CE
:101D6000FEF780FA8CA0FEF77DFA94A0FEF77AFACF
:101D700098A0FEF777FA9DA0FEF774FAA2A0FEF7EE
:101D800071FAA8A0FEF76EFAB4A0FEF76BFAC1A034
:101D9000FEF768FACCA0FEF765FAD8A0FEF762FA63
:101DA000A2E216A0FEF75EFAE4A0FEF75BFA0020BE
:101DB0000B900EE0F14800689DF82C2000EBC2006B
:101DC0004168EFA0FEF74EFA9DF82C00401CC0B20F
:101DD0000B90EA48007D9DF82C108842EADC07A0B1
:101DE000FEF740FA80E205A0FEF73CFACCE179E28A
:101DF0004DE221E2F4E10000200000200D0A000085
:101E00002D2D2D2D2D2D2D2D2D2D2D2D2D2D2D2D02
:101E10002D2D2D2D2D2D2D2D55534D415254205608
:101E2000332E322D2D2D2D2D2D2D2D2D2D2D2D2DD6
:101E30002D2D2D2D2D2D2D2D2D2D2D200D0A00007C
:101E40002020202055534D415254CAC7D3C9414C7C
:101E500049454E54454BBFAAB7A2B5C4D2BBB8F64C
:101E6000C1E9C7C9B5C4B4AEBFDAB5F7CAD4BBA51A
:101E7000BDBBD7E9BCFE2CCDA8B9FD200D0A0000E2
:101E8000CBFC2CC4E3BFC9D2D4CDA8B9FDB4AEBF3E
:101E9000DAD6FACAD6B5F7D3C3B3CCD0F2C0EFC303
:101EA000E6B5C4C8CEBACEBAAFCAFD2CB2A2D6B47B
:101EB000D0D02ED2F2B4CB2CC4E3BFC90D0A00009F
:101EC000D2D4CBE6D2E2B8FCB8C4BAAFCAFDB5C42E
:101ED000CAE4C8EBB2CECAFD28D6A7B3D6CAFDD78E
:101EE000D62831302F3136BDF8D6C62CD6A7B3D67A
:101EF000B8BACAFD29A1A2D7D6B7FBB4AE0D0A0065
:101F0000A1A2BAAFCAFDC8EBBFDAB5D8D6B7B5C87B
:101F1000D7F7CEAAB2CECAFD292CB5A5B8F6BAAF6E
:101F2000CAFDD7EEB6E0D6A7B3D63130B8F6CAE4CC
:101F3000C8EBB2CECAFD2CB2A2D6A7B3D60D0A000A
:101F4000BAAFCAFDB7B5BBD8D6B5CFD4CABE2ED6A8
:101F5000A7B3D6B2CECAFDCFD4CABEBDF8D6C6C9C5
:101F6000E8D6C3B9A6C4DC2CD6A7B3D6BDF8D6C66E
:101F7000D7AABBBBB9A6C4DC2E0D0A00BCBCCAF5EF
:101F8000D6A7B3D63A7777772E6F70656E6564768D
:101F90002E636F6D0D0A000055534D415254D3D03E
:101FA00037B8F6CFB5CDB3C3FCC1EE28B1D8D0EB6E
:101FB000D0A1D0B4293A0D0A000000003F3A2020F9
:101FC00020202020BBF1C8A1B0EFD6FAD0C5CFA207
:101FD0000D0A000068656C703A202020BBF1C8A192
:101FE000B0EFD6FAD0C5CFA20D0A00006C697374A9
:101FF0003A202020BFC9D3C3B5C4BAAFCAFDC1D0EF
:10200000B1ED0D0A0A00000069643A20202020206A
:10201000BFC9D3C3BAAFCAFDB5C44944C1D0B1ED3D
:102020000D0A0A006865783A20202020B2CECAFD49
:102030003136BDF8D6C6CFD4CABE2CBAF3B8FABF73
:10204000D5B8F12BCAFDD7D6BCB4D6B4D0D0BDF824
:10205000D6C6D7AABBBB0D0A0A0000006465633A66
:1020600020202020B2CECAFD3130BDF8D6C6CFD454
:10207000CABE2CBAF3B8FABFD5B8F12BCAFDD7D671
:10208000BCB4D6B4D0D0BDF8D6C6D7AABBBB0D0A57
:102090000A00000072756E74696D653A312CBFAA32
:1020A000C6F4BAAFCAFDD4CBD0D0BCC6CAB13B309F
:1020B0002CB9D8B1D5BAAFCAFDD4CBD0D0BCC6CA22
:1020C000B13B0D0A0A000000C7EBB0B4D5D5B3CCC4
:1020D000D0F2B1E0D0B4B8F1CABDCAE4C8EBBAAF2F
:1020E000CAFDC3FBBCB0B2CECAFDB2A2D2D4BBD82B
:1020F000B3B5BCFCBDE1CAF82E0D0A002D2D2D2D67
:102100002D2D2D2D2D2D2D2D2D2D2D2D2D2D2D2DFF
:102110002D2D2D2D2D2D414C49454E54454B2D2D0A
:102120002D2D2D2D2D2D2D2D2D2D2D2D2D2D2D2DDF
:102130002D2D2D2D2D2D2D200D0A00002D2D2D2D79
:102140002D2D2D2D2D2D2D2D2D2D2D2D2D2D2D2DBF
:102150002D2D2D2D2DBAAFCAFDC7E5B5A52D2D2DE1
:102160002D2D2D2D2D2D2D2D2D2D2D2D2D2D2D2D9F
:102170002D2D2D2D2D2D2D2D200D0A006C00002034
:1021800025730D0A0000000059A0FEF76BF800202F
:102190000B901AE0664909689DF82C2001EBC201FA
:1021A00001AB02AA486803A9FFF7AEFA60480068CD
:1021B0009DF82C1050F8312003A95EA0FEF752F8CC
:1021C0009DF82C00401CC0B20B905948007D9DF832
:1021D0002C108842DEDCAFF2DC30FEF743F883E0FF
:1021E000AFF2E830FEF73EF80BAA03A92046FFF74E
:1021F00005FA9DF82C00C8B9694603A8FFF7BBFC97
:102200000B909DF82C0020B94FA00099FEF72AF8FA
:102210000EE09DF82C00042801D0022063E54DA0BB
:10222000FEF720F801204249C87501E002205AE576
:1022300047A0FEF717F857E045A0FEF713F80BAAE2
:1022400003A92046FFF7DAF99DF82C00C8B96946C2
:1022500003A8FFF790FC0B909DF82C0020B942A03A
:102260000099FDF7FFFF0EE09DF82C00042801D037
:10227000022038E53FA0FDF7F5FF00202C49C87586
:1022800001E002202FE532A0FDF7ECFF2CE030A0AA
:10229000FDF7E8FF0BAA03A92046FFF7AFF99DF869
:1022A0002C00C8B9694603A8FFF765FC0B909DF8A0
:1022B0002C0078B91E49009881F8EC00084690F887
:1022C000EC0018B130A0FDF7CDFF07E035A0FDF719
:1022D000C9FF03E0022006E5022004E51CA0FDF78B
:1022E000C1FF01E00120FEE400BF0020FBE400008C
:1022F0002D2D2D2D2D2D2D2D2D2D2D2D2D2D2D2D0E
:102300002D2D2D2D2D2D2D2D2DBAAFCAFD2049445B
:10231000202D2D2D2D2D2D2D2D2D2D2D2D2D2D2DFA
:102320002D2D2D2D2D2D2D2D2D2D2D2D200D0A005A
:102330006C00002025732069642069733A0D0A300F
:1023400058253038580D0A004845583A3058255815
:102350000D0A00003136BDF8D6C6B2CECAFDCFD4C4
:10236000CABE210D0A0000004445433A256C750D94
:102370000A0000003130BDF8D6C6B2CECAFDCFD4B7
:10238000CABE210D0A00000052756E2054696D65A9
:102390002043616C63756C6174696F6E204F4E0DE4
:1023A0000A00000052756E2054696D652043616C0F
:1023B00063756C6174696F6E204F46460D0A0000AC
:1023C0000160704790EA010F48BF81F0004100F1C1
:1023D0002E82421A3CBF801A89184FEAD0524FF021
:1023E0007F4C1CEA410FA2EBD15318BF9CEA026F4D
:1023F00000F03B804FF0004C4CEA00204CEA0121F9
:1024000021FA03FC10EB0C0C1ED202F1FF325FEA42
:102410001C2040EBC25038BF70471CF07F0F4FEAC2
:10242000400C18BFBCF17F4F38BF7047C3F1200389
:10243000994008BF20F00100BCF17F4F38BF7047C2
:10244000A0F1C04000F0DDB94FEA3C00000A40EBCB
:10245000C25028BF1CF0FF0F4FEA400CE6D018BF57
:10246000BCF17F4F38BF7047EAE79CEA026F05D0A6
:1024700010EA5C0F08BF00F00040704710B500F094
:102480007AF900BF64FBBE3E4FF47F0C1CEAD01209
:102490001EBF1CEAD11392EA0C0F93EA0C0F00F056
:1024A000858090EA010F48BF42F4807240F4000C2E
:1024B00041F400002CF07F4120F07F4000B58142C4
:1024C000A2EB03020FF2081CACEB504EC0F100006F
:1024D0009EF800E04FEA4E0E00FB0EFC38BF4900AC
:1024E0004FEA2C1C02F5FA020CFB0EF34FEACE1E4B
:1024F0004FEA112C4FEAC1210EEB635E42EB224200
:102500000EFB0CFC4FEA1C5300FB03114FEA112C8D
:102510004FEA01310EFB0CFC4FEADC4C00FB0C11C6
:10252000C14228BF09184CEB03335DF804EB10EBF4
:10253000410143EBC250B2F57C0F38BF704729D53B
:1025400012F0F00F1CBF00F1C04000F000407047D7
:10255000008182838485868788898B8C8D8E8F917C
:102560009293959697999A9C9D9FA0A2A3A5A7A8A0
:10257000AAACAEB0B2B3B5B7B9BCBEC0C2C5C7C9CC
:10258000CCCED1D4D7D9DCDFE2E6E9ECF0F3F7FA30
:10259000FE0000004FEA400C0CF1807CBCF17E4F45
:1025A00028BF7047B0F1C04000F02BB990EA010F8E
:1025B0000CEAD11348BF42F48072624538BF6345CC
:1025C00007D213F47F0F16D080EA010000F000401C
:1025D000704710B500F0CFF8097EFC3E00F005B85A
:1025E00080EA010000F00040704780EA010000F03E
:1025F000004000F006B912F47F0F04BF0248704794
:1026000080EA010000F0FDB80000C07FC10DD1F1EB
:102610009E0206DB4FEA002343F0004323FA02F058
:102620007047004207D54FEA4001B1F1FE4F02D298
:102630004FF00000704710B500F09DF849922480DB
:10264000002070476FEA200070470000B0FA80F366
:1026500010FA03F2C3F19D030AD0D90501EB122051
:10266000530638BF704700F1010008BF20F0010099
:10267000704700004FF47F0C1CEAD0121EBF1CEA0A
:10268000D11392EA0C0F93EA0C0F00F0478090EA06
:10269000010F48BF42F480724FF0004C4CEA00201A
:1026A0004CEA012102EB0302A0FB0113A2F5000298
:1026B000002918BF43F001035B0028BF4FEA330332
:1026C00042EB22425FEA132C4CEBC2502EBFBCEB14
:1026D000436FB2F57C0F70474FEA036CBCF1004FBB
:1026E00008BF20F00100B2F57C0F38BF70470BD552
:1026F00082F0FF0212F5803FC8BF704700F1C04072
:10270000D8BF00F00040704700F5000C5FEA4C0CA9
:1027100048BF7047B0F1C04000F073B890EA010FB5
:102720000CEAD11348BF42F48072624538BF63455A
:1027300004D280EA010000F00040704710B500F0BC
:102740001AF800BF8900013E00F007B800F009B890
:102750005FEA410C5FEA1C6C08D080EA010000F0DF
:1027600050B85FEA400C5FEA1C6CF6D14FF00040B5
:10277000A0F5800070470EF1020E2EF0030E5EF8F9
:10278000044B244204D44FEA4102B2F17F4F11D8E6
:102790004FEA4003B3F17F4F0CD80ED14FEAD07C03
:1027A000B2F17F4F0CEB4C0C0CF1020C08BF4CEB60
:1027B000D17C04E04FF0080C01E04FEAD17C0CEB37
:1027C0004C0324FA03F404F00704B4F1040C06D219
:1027D0000EEB840CBDE810404CF0010C6047DFE8C4
:1027E0000CF0070802024FF00040A0F5800010BD79
:1027F0000846420018BFD2F1807288BF00F0004046
:1028000010BDFF2141EAD050C005704780F0004064
:1028100090EA010F7FF5DDAD81F0004100F007B8CF
:1028200090EA010F48BF81F000413FF5D2AD421A56
:1028300004D882F00042A0EB020011444FEAD052CB
:102840004FF07F4C1CEA410FA2EBD15318BF9CEA1A
:10285000026F4AD04FF0004C4CEA00204CEA0121B4
:1028600021FA03FCB0EB0C0C0FD412F0FE0F36D0A3
:102870005FEA4C001DD5001240EBC25038BF7047D4
:102880001CF03F0F18BF70470BE0A2F101025FEA96
:102890001C2040EBC25038BF70471CF07F0F18BFA0
:1028A0007047C3F12003994014BF401E20F001007F
:1028B000704780084FEA122308BF7047B0FA80FCC7
:1028C000A2EB0C02CCF1280C60FA0CF093EA122F68
:1028D00004BF00EBC25070474FEAC3707047130A41
:1028E0005FEADC1008BF7047F6E79CEA026F04D08D
:1028F00010EA5C0F08BF0020704710B5FFF73BFFE0
:1029000040DFF63E81F000407047303132333435DD
:10291000363738394142434445464030580030311B
:102920003233343536373839616263646566403036
:102930007800040000080000000000000002000110
:10294000000010000D0A5468652066726571756597
:102950006E6379206973206F7574206F66207261D1
:102960006E67652120706C656173652072657365A3
:102970007420697421212872616E67653A3230488B
:102980007A7E3130304B487A290D0A003F00000032
:10299000646563006964000072756E74696D65003A
:1029A00068656C70000000006C69737400000000C2
:1029B00068657800766F69642077726974655F6115
:1029C0006464722875333220616464722C7533320A
:1029D0002076616C290000007533322072656164D5
:1029E0005F61646472287533322061646472290007
:1029F000766F6964204C6F636174655F526C652803
:102A00006C6F6E67206E756D2C7533322066726543
:102A10007175656E63792C4449525F5479706520F5
:102A20006469722900000000766F69642064656C37
:102A300061795F6D7328753136206E6D73290000E2
:102A4000766F69642064656C61795F75732875338E
:102A500032206E7573290000766F6964204C6F63B5
:102A60006174655F416273286C6F6E67206E756D6F
:102A70002C753332206672657175656E6379290035
:102A8000A02A000800000020600100006C0100087E
:102A9000002B00086001002028050000C801000884
:102AA000D1E2011A0110138C291B08A0041AA804F2
:102AB0001A94041AB0041A90041A98041395111B5E
:102AC00008D80813C1231B08B4081365101408287C
:102AD0002A1B08A1081A400813FD091B08F0181347
:102AE000E5081B085810223C1420351A14087912E6
:102AF000140829131B08A50CFA067601CE00000065
:0400000508000131BD
:00000001FF
